{
	"admission.sol": {
		"admission": {
			"abi": [
				{
					"inputs": [
						{
							"internalType": "address",
							"name": "_studentAddress",
							"type": "address"
						},
						{
							"internalType": "string",
							"name": "_name",
							"type": "string"
						},
						{
							"internalType": "uint256",
							"name": "_mark",
							"type": "uint256"
						},
						{
							"internalType": "uint256",
							"name": "_phoneNo",
							"type": "uint256"
						},
						{
							"internalType": "enum admission.board",
							"name": "_examinationBoard",
							"type": "uint8"
						},
						{
							"internalType": "bool",
							"name": "_isHavingrequiredmark",
							"type": "bool"
						}
					],
					"name": "addStudent",
					"outputs": [],
					"stateMutability": "nonpayable",
					"type": "function"
				},
				{
					"inputs": [
						{
							"internalType": "address",
							"name": "_studentAddress",
							"type": "address"
						}
					],
					"name": "allocateNewSeat",
					"outputs": [
						{
							"internalType": "bool",
							"name": "",
							"type": "bool"
						}
					],
					"stateMutability": "nonpayable",
					"type": "function"
				},
				{
					"inputs": [
						{
							"internalType": "address",
							"name": "_studentAddress",
							"type": "address"
						}
					],
					"name": "applyseat",
					"outputs": [
						{
							"internalType": "string",
							"name": "",
							"type": "string"
						}
					],
					"stateMutability": "view",
					"type": "function"
				},
				{
					"inputs": [
						{
							"internalType": "address",
							"name": "",
							"type": "address"
						}
					],
					"name": "students",
					"outputs": [
						{
							"internalType": "string",
							"name": "name",
							"type": "string"
						},
						{
							"internalType": "uint256",
							"name": "mark",
							"type": "uint256"
						},
						{
							"internalType": "uint256",
							"name": "phoneNo",
							"type": "uint256"
						},
						{
							"internalType": "enum admission.board",
							"name": "examinationBoard",
							"type": "uint8"
						},
						{
							"internalType": "bool",
							"name": "isHavingrequiredmark",
							"type": "bool"
						}
					],
					"stateMutability": "view",
					"type": "function"
				},
				{
					"inputs": [
						{
							"internalType": "address",
							"name": "_studentAddress",
							"type": "address"
						},
						{
							"internalType": "uint256",
							"name": "_newPhoneNo",
							"type": "uint256"
						}
					],
					"name": "updateseatstatus",
					"outputs": [
						{
							"components": [
								{
									"internalType": "string",
									"name": "name",
									"type": "string"
								},
								{
									"internalType": "uint256",
									"name": "mark",
									"type": "uint256"
								},
								{
									"internalType": "uint256",
									"name": "phoneNo",
									"type": "uint256"
								},
								{
									"internalType": "enum admission.board",
									"name": "examinationBoard",
									"type": "uint8"
								},
								{
									"internalType": "bool",
									"name": "isHavingrequiredmark",
									"type": "bool"
								}
							],
							"internalType": "struct admission.student",
							"name": "",
							"type": "tuple"
						},
						{
							"internalType": "string",
							"name": "",
							"type": "string"
						}
					],
					"stateMutability": "nonpayable",
					"type": "function"
				}
			],
			"devdoc": {
				"kind": "dev",
				"methods": {},
				"version": 1
			},
			"evm": {
				"assembly": "    /* \"admission.sol\":60:2398  contract admission {... */\n  mstore(0x40, 0x80)\n  callvalue\n  dup1\n  iszero\n  tag_1\n  jumpi\n  0x00\n  dup1\n  revert\ntag_1:\n  pop\n  dataSize(sub_0)\n  dup1\n  dataOffset(sub_0)\n  0x00\n  codecopy\n  0x00\n  return\nstop\n\nsub_0: assembly {\n        /* \"admission.sol\":60:2398  contract admission {... */\n      mstore(0x40, 0x80)\n      callvalue\n      dup1\n      iszero\n      tag_1\n      jumpi\n      0x00\n      dup1\n      revert\n    tag_1:\n      pop\n      jumpi(tag_2, lt(calldatasize, 0x04))\n      shr(0xe0, calldataload(0x00))\n      dup1\n      0x1db791a3\n      eq\n      tag_3\n      jumpi\n      dup1\n      0xa6c807a9\n      eq\n      tag_4\n      jumpi\n      dup1\n      0xac512912\n      eq\n      tag_5\n      jumpi\n      dup1\n      0xcd2632d3\n      eq\n      tag_6\n      jumpi\n      dup1\n      0xfc478a22\n      eq\n      tag_7\n      jumpi\n    tag_2:\n      0x00\n      dup1\n      revert\n        /* \"admission.sol\":544:1017  function addStudent(... */\n    tag_3:\n      tag_8\n      0x04\n      dup1\n      calldatasize\n      sub\n      dup2\n      add\n      swap1\n      tag_9\n      swap2\n      swap1\n      tag_10\n      jump\t// in\n    tag_9:\n      tag_11\n      jump\t// in\n    tag_8:\n      stop\n        /* \"admission.sol\":454:497  mapping(address => student) public students */\n    tag_4:\n      tag_12\n      0x04\n      dup1\n      calldatasize\n      sub\n      dup2\n      add\n      swap1\n      tag_13\n      swap2\n      swap1\n      tag_14\n      jump\t// in\n    tag_13:\n      tag_15\n      jump\t// in\n    tag_12:\n      mload(0x40)\n      tag_16\n      swap6\n      swap5\n      swap4\n      swap3\n      swap2\n      swap1\n      tag_17\n      jump\t// in\n    tag_16:\n      mload(0x40)\n      dup1\n      swap2\n      sub\n      swap1\n      return\n        /* \"admission.sol\":1092:1427  function allocateNewSeat(address _studentAddress) public returns (bool) {... */\n    tag_5:\n      tag_18\n      0x04\n      dup1\n      calldatasize\n      sub\n      dup2\n      add\n      swap1\n      tag_19\n      swap2\n      swap1\n      tag_14\n      jump\t// in\n    tag_19:\n      tag_20\n      jump\t// in\n    tag_18:\n      mload(0x40)\n      tag_21\n      swap2\n      swap1\n      tag_22\n      jump\t// in\n    tag_21:\n      mload(0x40)\n      dup1\n      swap2\n      sub\n      swap1\n      return\n        /* \"admission.sol\":1923:2395  function applyseat(address _studentAddress) public view returns (string memory) {... */\n    tag_6:\n      tag_23\n      0x04\n      dup1\n      calldatasize\n      sub\n      dup2\n      add\n      swap1\n      tag_24\n      swap2\n      swap1\n      tag_14\n      jump\t// in\n    tag_24:\n      tag_25\n      jump\t// in\n    tag_23:\n      mload(0x40)\n      tag_26\n      swap2\n      swap1\n      tag_27\n      jump\t// in\n    tag_26:\n      mload(0x40)\n      dup1\n      swap2\n      sub\n      swap1\n      return\n        /* \"admission.sol\":1474:1878  function updateseatstatus(address _studentAddress, uint _newPhoneNo) public returns (student memory, string memory) {... */\n    tag_7:\n      tag_28\n      0x04\n      dup1\n      calldatasize\n      sub\n      dup2\n      add\n      swap1\n      tag_29\n      swap2\n      swap1\n      tag_30\n      jump\t// in\n    tag_29:\n      tag_31\n      jump\t// in\n    tag_28:\n      mload(0x40)\n      tag_32\n      swap3\n      swap2\n      swap1\n      tag_33\n      jump\t// in\n    tag_32:\n      mload(0x40)\n      dup1\n      swap2\n      sub\n      swap1\n      return\n        /* \"admission.sol\":544:1017  function addStudent(... */\n    tag_11:\n        /* \"admission.sol\":797:1009  student({... */\n      mload(0x40)\n      dup1\n      0xa0\n      add\n      0x40\n      mstore\n      dup1\n        /* \"admission.sol\":826:831  _name */\n      dup7\n        /* \"admission.sol\":797:1009  student({... */\n      dup2\n      mstore\n      0x20\n      add\n        /* \"admission.sol\":852:857  _mark */\n      dup6\n        /* \"admission.sol\":797:1009  student({... */\n      dup2\n      mstore\n      0x20\n      add\n        /* \"admission.sol\":881:889  _phoneNo */\n      dup5\n        /* \"admission.sol\":797:1009  student({... */\n      dup2\n      mstore\n      0x20\n      add\n        /* \"admission.sol\":922:939  _examinationBoard */\n      dup4\n        /* \"admission.sol\":797:1009  student({... */\n      0x03\n      dup2\n      gt\n      iszero\n      tag_35\n      jumpi\n      tag_36\n      tag_37\n      jump\t// in\n    tag_36:\n    tag_35:\n      dup2\n      mstore\n      0x20\n      add\n        /* \"admission.sol\":976:997  _isHavingrequiredmark */\n      dup3\n        /* \"admission.sol\":797:1009  student({... */\n      iszero\n      iszero\n      dup2\n      mstore\n      pop\n        /* \"admission.sol\":769:777  students */\n      0x00\n        /* \"admission.sol\":769:794  students[_studentAddress] */\n      dup1\n        /* \"admission.sol\":778:793  _studentAddress */\n      dup9\n        /* \"admission.sol\":769:794  students[_studentAddress] */\n      0xffffffffffffffffffffffffffffffffffffffff\n      and\n      0xffffffffffffffffffffffffffffffffffffffff\n      and\n      dup2\n      mstore\n      0x20\n      add\n      swap1\n      dup2\n      mstore\n      0x20\n      add\n      0x00\n      keccak256\n        /* \"admission.sol\":769:1009  students[_studentAddress] = student({... */\n      0x00\n      dup3\n      add\n      mload\n      dup2\n      0x00\n      add\n      swap1\n      dup2\n      tag_38\n      swap2\n      swap1\n      tag_39\n      jump\t// in\n    tag_38:\n      pop\n      0x20\n      dup3\n      add\n      mload\n      dup2\n      0x01\n      add\n      sstore\n      0x40\n      dup3\n      add\n      mload\n      dup2\n      0x02\n      add\n      sstore\n      0x60\n      dup3\n      add\n      mload\n      dup2\n      0x03\n      add\n      exp(0x0100, 0x00)\n      dup2\n      sload\n      dup2\n      0xff\n      mul\n      not\n      and\n      swap1\n      dup4\n      0x03\n      dup2\n      gt\n      iszero\n      tag_40\n      jumpi\n      tag_41\n      tag_37\n      jump\t// in\n    tag_41:\n    tag_40:\n      mul\n      or\n      swap1\n      sstore\n      pop\n      0x80\n      dup3\n      add\n      mload\n      dup2\n      0x03\n      add\n      exp(0x0100, 0x01)\n      dup2\n      sload\n      dup2\n      0xff\n      mul\n      not\n      and\n      swap1\n      dup4\n      iszero\n      iszero\n      mul\n      or\n      swap1\n      sstore\n      pop\n      swap1\n      pop\n      pop\n        /* \"admission.sol\":544:1017  function addStudent(... */\n      pop\n      pop\n      pop\n      pop\n      pop\n      pop\n      jump\t// out\n        /* \"admission.sol\":454:497  mapping(address => student) public students */\n    tag_15:\n      mstore(0x20, 0x00)\n      dup1\n      0x00\n      mstore\n      keccak256(0x00, 0x40)\n      0x00\n      swap2\n      pop\n      swap1\n      pop\n      dup1\n      0x00\n      add\n      dup1\n      sload\n      tag_42\n      swap1\n      tag_43\n      jump\t// in\n    tag_42:\n      dup1\n      0x1f\n      add\n      0x20\n      dup1\n      swap2\n      div\n      mul\n      0x20\n      add\n      mload(0x40)\n      swap1\n      dup2\n      add\n      0x40\n      mstore\n      dup1\n      swap3\n      swap2\n      swap1\n      dup2\n      dup2\n      mstore\n      0x20\n      add\n      dup3\n      dup1\n      sload\n      tag_44\n      swap1\n      tag_43\n      jump\t// in\n    tag_44:\n      dup1\n      iszero\n      tag_45\n      jumpi\n      dup1\n      0x1f\n      lt\n      tag_46\n      jumpi\n      0x0100\n      dup1\n      dup4\n      sload\n      div\n      mul\n      dup4\n      mstore\n      swap2\n      0x20\n      add\n      swap2\n      jump(tag_45)\n    tag_46:\n      dup3\n      add\n      swap2\n      swap1\n      0x00\n      mstore\n      keccak256(0x00, 0x20)\n      swap1\n    tag_47:\n      dup2\n      sload\n      dup2\n      mstore\n      swap1\n      0x01\n      add\n      swap1\n      0x20\n      add\n      dup1\n      dup4\n      gt\n      tag_47\n      jumpi\n      dup3\n      swap1\n      sub\n      0x1f\n      and\n      dup3\n      add\n      swap2\n    tag_45:\n      pop\n      pop\n      pop\n      pop\n      pop\n      swap1\n      dup1\n      0x01\n      add\n      sload\n      swap1\n      dup1\n      0x02\n      add\n      sload\n      swap1\n      dup1\n      0x03\n      add\n      0x00\n      swap1\n      sload\n      swap1\n      0x0100\n      exp\n      swap1\n      div\n      0xff\n      and\n      swap1\n      dup1\n      0x03\n      add\n      0x01\n      swap1\n      sload\n      swap1\n      0x0100\n      exp\n      swap1\n      div\n      0xff\n      and\n      swap1\n      pop\n      dup6\n      jump\t// out\n        /* \"admission.sol\":1092:1427  function allocateNewSeat(address _studentAddress) public returns (bool) {... */\n    tag_20:\n        /* \"admission.sol\":1158:1162  bool */\n      0x00\n        /* \"admission.sol\":1282:1284  75 */\n      0x4b\n        /* \"admission.sol\":1249:1257  students */\n      0x00\n        /* \"admission.sol\":1249:1274  students[_studentAddress] */\n      dup1\n        /* \"admission.sol\":1258:1273  _studentAddress */\n      dup5\n        /* \"admission.sol\":1249:1274  students[_studentAddress] */\n      0xffffffffffffffffffffffffffffffffffffffff\n      and\n      0xffffffffffffffffffffffffffffffffffffffff\n      and\n      dup2\n      mstore\n      0x20\n      add\n      swap1\n      dup2\n      mstore\n      0x20\n      add\n      0x00\n      keccak256\n        /* \"admission.sol\":1249:1279  students[_studentAddress].mark */\n      0x01\n      add\n      sload\n        /* \"admission.sol\":1249:1284  students[_studentAddress].mark > 75 */\n      gt\n        /* \"admission.sol\":1241:1333  require(students[_studentAddress].mark > 75, \"Under required mark, application is rejected\") */\n      tag_49\n      jumpi\n      mload(0x40)\n      0x08c379a000000000000000000000000000000000000000000000000000000000\n      dup2\n      mstore\n      0x04\n      add\n      tag_50\n      swap1\n      tag_51\n      jump\t// in\n    tag_50:\n      mload(0x40)\n      dup1\n      swap2\n      sub\n      swap1\n      revert\n    tag_49:\n        /* \"admission.sol\":1393:1397  true */\n      0x01\n        /* \"admission.sol\":1344:1352  students */\n      0x00\n        /* \"admission.sol\":1344:1369  students[_studentAddress] */\n      dup1\n        /* \"admission.sol\":1353:1368  _studentAddress */\n      dup5\n        /* \"admission.sol\":1344:1369  students[_studentAddress] */\n      0xffffffffffffffffffffffffffffffffffffffff\n      and\n      0xffffffffffffffffffffffffffffffffffffffff\n      and\n      dup2\n      mstore\n      0x20\n      add\n      swap1\n      dup2\n      mstore\n      0x20\n      add\n      0x00\n      keccak256\n        /* \"admission.sol\":1344:1390  students[_studentAddress].isHavingrequiredmark */\n      0x03\n      add\n      0x01\n        /* \"admission.sol\":1344:1397  students[_studentAddress].isHavingrequiredmark = true */\n      0x0100\n      exp\n      dup2\n      sload\n      dup2\n      0xff\n      mul\n      not\n      and\n      swap1\n      dup4\n      iszero\n      iszero\n      mul\n      or\n      swap1\n      sstore\n      pop\n        /* \"admission.sol\":1415:1419  true */\n      0x01\n        /* \"admission.sol\":1408:1419  return true */\n      swap1\n      pop\n        /* \"admission.sol\":1092:1427  function allocateNewSeat(address _studentAddress) public returns (bool) {... */\n      swap2\n      swap1\n      pop\n      jump\t// out\n        /* \"admission.sol\":1923:2395  function applyseat(address _studentAddress) public view returns (string memory) {... */\n    tag_25:\n        /* \"admission.sol\":1988:2001  string memory */\n      0x60\n        /* \"admission.sol\":2019:2027  students */\n      0x00\n        /* \"admission.sol\":2019:2044  students[_studentAddress] */\n      dup1\n        /* \"admission.sol\":2028:2043  _studentAddress */\n      dup4\n        /* \"admission.sol\":2019:2044  students[_studentAddress] */\n      0xffffffffffffffffffffffffffffffffffffffff\n      and\n      0xffffffffffffffffffffffffffffffffffffffff\n      and\n      dup2\n      mstore\n      0x20\n      add\n      swap1\n      dup2\n      mstore\n      0x20\n      add\n      0x00\n      keccak256\n        /* \"admission.sol\":2019:2065  students[_studentAddress].isHavingrequiredmark */\n      0x03\n      add\n      0x01\n      swap1\n      sload\n      swap1\n      0x0100\n      exp\n      swap1\n      div\n      0xff\n      and\n        /* \"admission.sol\":2014:2163  if (!students[_studentAddress].isHavingrequiredmark) {... */\n      tag_53\n      jumpi\n        /* \"admission.sol\":2082:2151  revert(\"No existing seat status to update, first allocate a new one\") */\n      mload(0x40)\n      0x08c379a000000000000000000000000000000000000000000000000000000000\n      dup2\n      mstore\n      0x04\n      add\n      tag_54\n      swap1\n      tag_55\n      jump\t// in\n    tag_54:\n      mload(0x40)\n      dup1\n      swap2\n      sub\n      swap1\n      revert\n        /* \"admission.sol\":2014:2163  if (!students[_studentAddress].isHavingrequiredmark) {... */\n    tag_53:\n        /* \"admission.sol\":2242:2253  board.Dhaka */\n      0x00\n        /* \"admission.sol\":2196:2253  students[_studentAddress].examinationBoard == board.Dhaka */\n      0x03\n      dup2\n      gt\n      iszero\n      tag_56\n      jumpi\n      tag_57\n      tag_37\n      jump\t// in\n    tag_57:\n    tag_56:\n        /* \"admission.sol\":2196:2204  students */\n      0x00\n        /* \"admission.sol\":2196:2221  students[_studentAddress] */\n      dup1\n        /* \"admission.sol\":2205:2220  _studentAddress */\n      dup5\n        /* \"admission.sol\":2196:2221  students[_studentAddress] */\n      0xffffffffffffffffffffffffffffffffffffffff\n      and\n      0xffffffffffffffffffffffffffffffffffffffff\n      and\n      dup2\n      mstore\n      0x20\n      add\n      swap1\n      dup2\n      mstore\n      0x20\n      add\n      0x00\n      keccak256\n        /* \"admission.sol\":2196:2238  students[_studentAddress].examinationBoard */\n      0x03\n      add\n      0x00\n      swap1\n      sload\n      swap1\n      0x0100\n      exp\n      swap1\n      div\n      0xff\n      and\n        /* \"admission.sol\":2196:2253  students[_studentAddress].examinationBoard == board.Dhaka */\n      0x03\n      dup2\n      gt\n      iszero\n      tag_58\n      jumpi\n      tag_59\n      tag_37\n      jump\t// in\n    tag_59:\n    tag_58:\n      eq\n        /* \"admission.sol\":2196:2328  students[_studentAddress].examinationBoard == board.Dhaka ||... */\n      dup1\n      tag_60\n      jumpi\n      pop\n        /* \"admission.sol\":2316:2328  board.Sylhet */\n      0x03\n        /* \"admission.sol\":2270:2328  students[_studentAddress].examinationBoard == board.Sylhet */\n      dup1\n      dup2\n      gt\n      iszero\n      tag_61\n      jumpi\n      tag_62\n      tag_37\n      jump\t// in\n    tag_62:\n    tag_61:\n        /* \"admission.sol\":2270:2278  students */\n      0x00\n        /* \"admission.sol\":2270:2295  students[_studentAddress] */\n      dup1\n        /* \"admission.sol\":2279:2294  _studentAddress */\n      dup5\n        /* \"admission.sol\":2270:2295  students[_studentAddress] */\n      0xffffffffffffffffffffffffffffffffffffffff\n      and\n      0xffffffffffffffffffffffffffffffffffffffff\n      and\n      dup2\n      mstore\n      0x20\n      add\n      swap1\n      dup2\n      mstore\n      0x20\n      add\n      0x00\n      keccak256\n        /* \"admission.sol\":2270:2312  students[_studentAddress].examinationBoard */\n      0x03\n      add\n      0x00\n      swap1\n      sload\n      swap1\n      0x0100\n      exp\n      swap1\n      div\n      0xff\n      and\n        /* \"admission.sol\":2270:2328  students[_studentAddress].examinationBoard == board.Sylhet */\n      0x03\n      dup2\n      gt\n      iszero\n      tag_63\n      jumpi\n      tag_64\n      tag_37\n      jump\t// in\n    tag_64:\n    tag_63:\n      eq\n        /* \"admission.sol\":2196:2328  students[_studentAddress].examinationBoard == board.Dhaka ||... */\n    tag_60:\n        /* \"admission.sol\":2175:2339  assert(... */\n      tag_65\n      jumpi\n      tag_66\n      tag_67\n      jump\t// in\n    tag_66:\n    tag_65:\n        /* \"admission.sol\":2350:2387  return (\"Seat allocation successful\") */\n      mload(0x40)\n      dup1\n      0x40\n      add\n      0x40\n      mstore\n      dup1\n      0x1a\n      dup2\n      mstore\n      0x20\n      add\n      0x5365617420616c6c6f636174696f6e207375636365737366756c000000000000\n      dup2\n      mstore\n      pop\n      swap1\n      pop\n        /* \"admission.sol\":1923:2395  function applyseat(address _studentAddress) public view returns (string memory) {... */\n      swap2\n      swap1\n      pop\n      jump\t// out\n        /* \"admission.sol\":1474:1878  function updateseatstatus(address _studentAddress, uint _newPhoneNo) public returns (student memory, string memory) {... */\n    tag_31:\n        /* \"admission.sol\":1559:1573  student memory */\n      tag_68\n      tag_69\n      jump\t// in\n    tag_68:\n        /* \"admission.sol\":1575:1588  string memory */\n      0x60\n        /* \"admission.sol\":1606:1614  students */\n      0x00\n        /* \"admission.sol\":1606:1631  students[_studentAddress] */\n      dup1\n        /* \"admission.sol\":1615:1630  _studentAddress */\n      dup6\n        /* \"admission.sol\":1606:1631  students[_studentAddress] */\n      0xffffffffffffffffffffffffffffffffffffffff\n      and\n      0xffffffffffffffffffffffffffffffffffffffff\n      and\n      dup2\n      mstore\n      0x20\n      add\n      swap1\n      dup2\n      mstore\n      0x20\n      add\n      0x00\n      keccak256\n        /* \"admission.sol\":1606:1652  students[_studentAddress].isHavingrequiredmark */\n      0x03\n      add\n      0x01\n      swap1\n      sload\n      swap1\n      0x0100\n      exp\n      swap1\n      div\n      0xff\n      and\n        /* \"admission.sol\":1601:1750  if (!students[_studentAddress].isHavingrequiredmark) {... */\n      tag_71\n      jumpi\n        /* \"admission.sol\":1669:1738  revert(\"No existing seat status to update, first allocate a new one\") */\n      mload(0x40)\n      0x08c379a000000000000000000000000000000000000000000000000000000000\n      dup2\n      mstore\n      0x04\n      add\n      tag_72\n      swap1\n      tag_55\n      jump\t// in\n    tag_72:\n      mload(0x40)\n      dup1\n      swap2\n      sub\n      swap1\n      revert\n        /* \"admission.sol\":1601:1750  if (!students[_studentAddress].isHavingrequiredmark) {... */\n    tag_71:\n        /* \"admission.sol\":1796:1807  _newPhoneNo */\n      dup3\n        /* \"admission.sol\":1760:1768  students */\n      0x00\n        /* \"admission.sol\":1760:1785  students[_studentAddress] */\n      dup1\n        /* \"admission.sol\":1769:1784  _studentAddress */\n      dup7\n        /* \"admission.sol\":1760:1785  students[_studentAddress] */\n      0xffffffffffffffffffffffffffffffffffffffff\n      and\n      0xffffffffffffffffffffffffffffffffffffffff\n      and\n      dup2\n      mstore\n      0x20\n      add\n      swap1\n      dup2\n      mstore\n      0x20\n      add\n      0x00\n      keccak256\n        /* \"admission.sol\":1760:1793  students[_studentAddress].phoneNo */\n      0x02\n      add\n        /* \"admission.sol\":1760:1807  students[_studentAddress].phoneNo = _newPhoneNo */\n      dup2\n      swap1\n      sstore\n      pop\n        /* \"admission.sol\":1826:1834  students */\n      0x00\n        /* \"admission.sol\":1826:1851  students[_studentAddress] */\n      dup1\n        /* \"admission.sol\":1835:1850  _studentAddress */\n      dup6\n        /* \"admission.sol\":1826:1851  students[_studentAddress] */\n      0xffffffffffffffffffffffffffffffffffffffff\n      and\n      0xffffffffffffffffffffffffffffffffffffffff\n      and\n      dup2\n      mstore\n      0x20\n      add\n      swap1\n      dup2\n      mstore\n      0x20\n      add\n      0x00\n      keccak256\n        /* \"admission.sol\":1818:1870  return (students[_studentAddress], \"Status updated\") */\n      dup1\n      mload(0x40)\n      dup1\n      0xa0\n      add\n      0x40\n      mstore\n      swap1\n      dup2\n      0x00\n      dup3\n      add\n      dup1\n      sload\n      tag_73\n      swap1\n      tag_43\n      jump\t// in\n    tag_73:\n      dup1\n      0x1f\n      add\n      0x20\n      dup1\n      swap2\n      div\n      mul\n      0x20\n      add\n      mload(0x40)\n      swap1\n      dup2\n      add\n      0x40\n      mstore\n      dup1\n      swap3\n      swap2\n      swap1\n      dup2\n      dup2\n      mstore\n      0x20\n      add\n      dup3\n      dup1\n      sload\n      tag_74\n      swap1\n      tag_43\n      jump\t// in\n    tag_74:\n      dup1\n      iszero\n      tag_75\n      jumpi\n      dup1\n      0x1f\n      lt\n      tag_76\n      jumpi\n      0x0100\n      dup1\n      dup4\n      sload\n      div\n      mul\n      dup4\n      mstore\n      swap2\n      0x20\n      add\n      swap2\n      jump(tag_75)\n    tag_76:\n      dup3\n      add\n      swap2\n      swap1\n      0x00\n      mstore\n      keccak256(0x00, 0x20)\n      swap1\n    tag_77:\n      dup2\n      sload\n      dup2\n      mstore\n      swap1\n      0x01\n      add\n      swap1\n      0x20\n      add\n      dup1\n      dup4\n      gt\n      tag_77\n      jumpi\n      dup3\n      swap1\n      sub\n      0x1f\n      and\n      dup3\n      add\n      swap2\n    tag_75:\n      pop\n      pop\n      pop\n      pop\n      pop\n      dup2\n      mstore\n      0x20\n      add\n      0x01\n      dup3\n      add\n      sload\n      dup2\n      mstore\n      0x20\n      add\n      0x02\n      dup3\n      add\n      sload\n      dup2\n      mstore\n      0x20\n      add\n      0x03\n      dup3\n      add\n      0x00\n      swap1\n      sload\n      swap1\n      0x0100\n      exp\n      swap1\n      div\n      0xff\n      and\n      0x03\n      dup2\n      gt\n      iszero\n      tag_78\n      jumpi\n      tag_79\n      tag_37\n      jump\t// in\n    tag_79:\n    tag_78:\n      0x03\n      dup2\n      gt\n      iszero\n      tag_80\n      jumpi\n      tag_81\n      tag_37\n      jump\t// in\n    tag_81:\n    tag_80:\n      dup2\n      mstore\n      0x20\n      add\n      0x03\n      dup3\n      add\n      0x01\n      swap1\n      sload\n      swap1\n      0x0100\n      exp\n      swap1\n      div\n      0xff\n      and\n      iszero\n      iszero\n      iszero\n      iszero\n      dup2\n      mstore\n      pop\n      pop\n      swap1\n      pop\n      mload(0x40)\n      dup1\n      0x40\n      add\n      0x40\n      mstore\n      dup1\n      0x0e\n      dup2\n      mstore\n      0x20\n      add\n      0x5374617475732075706461746564000000000000000000000000000000000000\n      dup2\n      mstore\n      pop\n      swap2\n      pop\n      swap2\n      pop\n        /* \"admission.sol\":1474:1878  function updateseatstatus(address _studentAddress, uint _newPhoneNo) public returns (student memory, string memory) {... */\n      swap3\n      pop\n      swap3\n      swap1\n      pop\n      jump\t// out\n    tag_69:\n      mload(0x40)\n      dup1\n      0xa0\n      add\n      0x40\n      mstore\n      dup1\n      0x60\n      dup2\n      mstore\n      0x20\n      add\n      0x00\n      dup2\n      mstore\n      0x20\n      add\n      0x00\n      dup2\n      mstore\n      0x20\n      add\n      0x00\n      0x03\n      dup2\n      gt\n      iszero\n      tag_82\n      jumpi\n      tag_83\n      tag_37\n      jump\t// in\n    tag_83:\n    tag_82:\n      dup2\n      mstore\n      0x20\n      add\n      iszero(iszero(0x00))\n      dup2\n      mstore\n      pop\n      swap1\n      jump\t// out\n        /* \"#utility.yul\":7:82   */\n    tag_84:\n        /* \"#utility.yul\":40:46   */\n      0x00\n        /* \"#utility.yul\":73:75   */\n      0x40\n        /* \"#utility.yul\":67:76   */\n      mload\n        /* \"#utility.yul\":57:76   */\n      swap1\n      pop\n        /* \"#utility.yul\":7:82   */\n      swap1\n      jump\t// out\n        /* \"#utility.yul\":88:205   */\n    tag_85:\n        /* \"#utility.yul\":197:198   */\n      0x00\n        /* \"#utility.yul\":194:195   */\n      dup1\n        /* \"#utility.yul\":187:199   */\n      revert\n        /* \"#utility.yul\":211:328   */\n    tag_86:\n        /* \"#utility.yul\":320:321   */\n      0x00\n        /* \"#utility.yul\":317:318   */\n      dup1\n        /* \"#utility.yul\":310:322   */\n      revert\n        /* \"#utility.yul\":334:460   */\n    tag_87:\n        /* \"#utility.yul\":371:378   */\n      0x00\n        /* \"#utility.yul\":411:453   */\n      0xffffffffffffffffffffffffffffffffffffffff\n        /* \"#utility.yul\":404:409   */\n      dup3\n        /* \"#utility.yul\":400:454   */\n      and\n        /* \"#utility.yul\":389:454   */\n      swap1\n      pop\n        /* \"#utility.yul\":334:460   */\n      swap2\n      swap1\n      pop\n      jump\t// out\n        /* \"#utility.yul\":466:562   */\n    tag_88:\n        /* \"#utility.yul\":503:510   */\n      0x00\n        /* \"#utility.yul\":532:556   */\n      tag_151\n        /* \"#utility.yul\":550:555   */\n      dup3\n        /* \"#utility.yul\":532:556   */\n      tag_87\n      jump\t// in\n    tag_151:\n        /* \"#utility.yul\":521:556   */\n      swap1\n      pop\n        /* \"#utility.yul\":466:562   */\n      swap2\n      swap1\n      pop\n      jump\t// out\n        /* \"#utility.yul\":568:690   */\n    tag_89:\n        /* \"#utility.yul\":641:665   */\n      tag_153\n        /* \"#utility.yul\":659:664   */\n      dup2\n        /* \"#utility.yul\":641:665   */\n      tag_88\n      jump\t// in\n    tag_153:\n        /* \"#utility.yul\":634:639   */\n      dup2\n        /* \"#utility.yul\":631:666   */\n      eq\n        /* \"#utility.yul\":621:684   */\n      tag_154\n      jumpi\n        /* \"#utility.yul\":680:681   */\n      0x00\n        /* \"#utility.yul\":677:678   */\n      dup1\n        /* \"#utility.yul\":670:682   */\n      revert\n        /* \"#utility.yul\":621:684   */\n    tag_154:\n        /* \"#utility.yul\":568:690   */\n      pop\n      jump\t// out\n        /* \"#utility.yul\":696:835   */\n    tag_90:\n        /* \"#utility.yul\":742:747   */\n      0x00\n        /* \"#utility.yul\":780:786   */\n      dup2\n        /* \"#utility.yul\":767:787   */\n      calldataload\n        /* \"#utility.yul\":758:787   */\n      swap1\n      pop\n        /* \"#utility.yul\":796:829   */\n      tag_156\n        /* \"#utility.yul\":823:828   */\n      dup2\n        /* \"#utility.yul\":796:829   */\n      tag_89\n      jump\t// in\n    tag_156:\n        /* \"#utility.yul\":696:835   */\n      swap3\n      swap2\n      pop\n      pop\n      jump\t// out\n        /* \"#utility.yul\":841:958   */\n    tag_91:\n        /* \"#utility.yul\":950:951   */\n      0x00\n        /* \"#utility.yul\":947:948   */\n      dup1\n        /* \"#utility.yul\":940:952   */\n      revert\n        /* \"#utility.yul\":964:1081   */\n    tag_92:\n        /* \"#utility.yul\":1073:1074   */\n      0x00\n        /* \"#utility.yul\":1070:1071   */\n      dup1\n        /* \"#utility.yul\":1063:1075   */\n      revert\n        /* \"#utility.yul\":1087:1189   */\n    tag_93:\n        /* \"#utility.yul\":1128:1134   */\n      0x00\n        /* \"#utility.yul\":1179:1181   */\n      0x1f\n        /* \"#utility.yul\":1175:1182   */\n      not\n        /* \"#utility.yul\":1170:1172   */\n      0x1f\n        /* \"#utility.yul\":1163:1168   */\n      dup4\n        /* \"#utility.yul\":1159:1173   */\n      add\n        /* \"#utility.yul\":1155:1183   */\n      and\n        /* \"#utility.yul\":1145:1183   */\n      swap1\n      pop\n        /* \"#utility.yul\":1087:1189   */\n      swap2\n      swap1\n      pop\n      jump\t// out\n        /* \"#utility.yul\":1195:1375   */\n    tag_94:\n        /* \"#utility.yul\":1243:1320   */\n      0x4e487b7100000000000000000000000000000000000000000000000000000000\n        /* \"#utility.yul\":1240:1241   */\n      0x00\n        /* \"#utility.yul\":1233:1321   */\n      mstore\n        /* \"#utility.yul\":1340:1344   */\n      0x41\n        /* \"#utility.yul\":1337:1338   */\n      0x04\n        /* \"#utility.yul\":1330:1345   */\n      mstore\n        /* \"#utility.yul\":1364:1368   */\n      0x24\n        /* \"#utility.yul\":1361:1362   */\n      0x00\n        /* \"#utility.yul\":1354:1369   */\n      revert\n        /* \"#utility.yul\":1381:1662   */\n    tag_95:\n        /* \"#utility.yul\":1464:1491   */\n      tag_162\n        /* \"#utility.yul\":1486:1490   */\n      dup3\n        /* \"#utility.yul\":1464:1491   */\n      tag_93\n      jump\t// in\n    tag_162:\n        /* \"#utility.yul\":1456:1462   */\n      dup2\n        /* \"#utility.yul\":1452:1492   */\n      add\n        /* \"#utility.yul\":1594:1600   */\n      dup2\n        /* \"#utility.yul\":1582:1592   */\n      dup2\n        /* \"#utility.yul\":1579:1601   */\n      lt\n        /* \"#utility.yul\":1558:1576   */\n      0xffffffffffffffff\n        /* \"#utility.yul\":1546:1556   */\n      dup3\n        /* \"#utility.yul\":1543:1577   */\n      gt\n        /* \"#utility.yul\":1540:1602   */\n      or\n        /* \"#utility.yul\":1537:1625   */\n      iszero\n      tag_163\n      jumpi\n        /* \"#utility.yul\":1605:1623   */\n      tag_164\n      tag_94\n      jump\t// in\n    tag_164:\n        /* \"#utility.yul\":1537:1625   */\n    tag_163:\n        /* \"#utility.yul\":1645:1655   */\n      dup1\n        /* \"#utility.yul\":1641:1643   */\n      0x40\n        /* \"#utility.yul\":1634:1656   */\n      mstore\n        /* \"#utility.yul\":1424:1662   */\n      pop\n        /* \"#utility.yul\":1381:1662   */\n      pop\n      pop\n      jump\t// out\n        /* \"#utility.yul\":1668:1797   */\n    tag_96:\n        /* \"#utility.yul\":1702:1708   */\n      0x00\n        /* \"#utility.yul\":1729:1749   */\n      tag_166\n      tag_84\n      jump\t// in\n    tag_166:\n        /* \"#utility.yul\":1719:1749   */\n      swap1\n      pop\n        /* \"#utility.yul\":1758:1791   */\n      tag_167\n        /* \"#utility.yul\":1786:1790   */\n      dup3\n        /* \"#utility.yul\":1778:1784   */\n      dup3\n        /* \"#utility.yul\":1758:1791   */\n      tag_95\n      jump\t// in\n    tag_167:\n        /* \"#utility.yul\":1668:1797   */\n      swap2\n      swap1\n      pop\n      jump\t// out\n        /* \"#utility.yul\":1803:2111   */\n    tag_97:\n        /* \"#utility.yul\":1865:1869   */\n      0x00\n        /* \"#utility.yul\":1955:1973   */\n      0xffffffffffffffff\n        /* \"#utility.yul\":1947:1953   */\n      dup3\n        /* \"#utility.yul\":1944:1974   */\n      gt\n        /* \"#utility.yul\":1941:1997   */\n      iszero\n      tag_169\n      jumpi\n        /* \"#utility.yul\":1977:1995   */\n      tag_170\n      tag_94\n      jump\t// in\n    tag_170:\n        /* \"#utility.yul\":1941:1997   */\n    tag_169:\n        /* \"#utility.yul\":2015:2044   */\n      tag_171\n        /* \"#utility.yul\":2037:2043   */\n      dup3\n        /* \"#utility.yul\":2015:2044   */\n      tag_93\n      jump\t// in\n    tag_171:\n        /* \"#utility.yul\":2007:2044   */\n      swap1\n      pop\n        /* \"#utility.yul\":2099:2103   */\n      0x20\n        /* \"#utility.yul\":2093:2097   */\n      dup2\n        /* \"#utility.yul\":2089:2104   */\n      add\n        /* \"#utility.yul\":2081:2104   */\n      swap1\n      pop\n        /* \"#utility.yul\":1803:2111   */\n      swap2\n      swap1\n      pop\n      jump\t// out\n        /* \"#utility.yul\":2117:2265   */\n    tag_98:\n        /* \"#utility.yul\":2215:2221   */\n      dup3\n        /* \"#utility.yul\":2210:2213   */\n      dup2\n        /* \"#utility.yul\":2205:2208   */\n      dup4\n        /* \"#utility.yul\":2192:2222   */\n      calldatacopy\n        /* \"#utility.yul\":2256:2257   */\n      0x00\n        /* \"#utility.yul\":2247:2253   */\n      dup4\n        /* \"#utility.yul\":2242:2245   */\n      dup4\n        /* \"#utility.yul\":2238:2254   */\n      add\n        /* \"#utility.yul\":2231:2258   */\n      mstore\n        /* \"#utility.yul\":2117:2265   */\n      pop\n      pop\n      pop\n      jump\t// out\n        /* \"#utility.yul\":2271:2696   */\n    tag_99:\n        /* \"#utility.yul\":2349:2354   */\n      0x00\n        /* \"#utility.yul\":2374:2440   */\n      tag_174\n        /* \"#utility.yul\":2390:2439   */\n      tag_175\n        /* \"#utility.yul\":2432:2438   */\n      dup5\n        /* \"#utility.yul\":2390:2439   */\n      tag_97\n      jump\t// in\n    tag_175:\n        /* \"#utility.yul\":2374:2440   */\n      tag_96\n      jump\t// in\n    tag_174:\n        /* \"#utility.yul\":2365:2440   */\n      swap1\n      pop\n        /* \"#utility.yul\":2463:2469   */\n      dup3\n        /* \"#utility.yul\":2456:2461   */\n      dup2\n        /* \"#utility.yul\":2449:2470   */\n      mstore\n        /* \"#utility.yul\":2501:2505   */\n      0x20\n        /* \"#utility.yul\":2494:2499   */\n      dup2\n        /* \"#utility.yul\":2490:2506   */\n      add\n        /* \"#utility.yul\":2539:2542   */\n      dup5\n        /* \"#utility.yul\":2530:2536   */\n      dup5\n        /* \"#utility.yul\":2525:2528   */\n      dup5\n        /* \"#utility.yul\":2521:2537   */\n      add\n        /* \"#utility.yul\":2518:2543   */\n      gt\n        /* \"#utility.yul\":2515:2627   */\n      iszero\n      tag_176\n      jumpi\n        /* \"#utility.yul\":2546:2625   */\n      tag_177\n      tag_92\n      jump\t// in\n    tag_177:\n        /* \"#utility.yul\":2515:2627   */\n    tag_176:\n        /* \"#utility.yul\":2636:2690   */\n      tag_178\n        /* \"#utility.yul\":2683:2689   */\n      dup5\n        /* \"#utility.yul\":2678:2681   */\n      dup3\n        /* \"#utility.yul\":2673:2676   */\n      dup6\n        /* \"#utility.yul\":2636:2690   */\n      tag_98\n      jump\t// in\n    tag_178:\n        /* \"#utility.yul\":2355:2696   */\n      pop\n        /* \"#utility.yul\":2271:2696   */\n      swap4\n      swap3\n      pop\n      pop\n      pop\n      jump\t// out\n        /* \"#utility.yul\":2716:3056   */\n    tag_100:\n        /* \"#utility.yul\":2772:2777   */\n      0x00\n        /* \"#utility.yul\":2821:2824   */\n      dup3\n        /* \"#utility.yul\":2814:2818   */\n      0x1f\n        /* \"#utility.yul\":2806:2812   */\n      dup4\n        /* \"#utility.yul\":2802:2819   */\n      add\n        /* \"#utility.yul\":2798:2825   */\n      slt\n        /* \"#utility.yul\":2788:2910   */\n      tag_180\n      jumpi\n        /* \"#utility.yul\":2829:2908   */\n      tag_181\n      tag_91\n      jump\t// in\n    tag_181:\n        /* \"#utility.yul\":2788:2910   */\n    tag_180:\n        /* \"#utility.yul\":2946:2952   */\n      dup2\n        /* \"#utility.yul\":2933:2953   */\n      calldataload\n        /* \"#utility.yul\":2971:3050   */\n      tag_182\n        /* \"#utility.yul\":3046:3049   */\n      dup5\n        /* \"#utility.yul\":3038:3044   */\n      dup3\n        /* \"#utility.yul\":3031:3035   */\n      0x20\n        /* \"#utility.yul\":3023:3029   */\n      dup7\n        /* \"#utility.yul\":3019:3036   */\n      add\n        /* \"#utility.yul\":2971:3050   */\n      tag_99\n      jump\t// in\n    tag_182:\n        /* \"#utility.yul\":2962:3050   */\n      swap2\n      pop\n        /* \"#utility.yul\":2778:3056   */\n      pop\n        /* \"#utility.yul\":2716:3056   */\n      swap3\n      swap2\n      pop\n      pop\n      jump\t// out\n        /* \"#utility.yul\":3062:3139   */\n    tag_101:\n        /* \"#utility.yul\":3099:3106   */\n      0x00\n        /* \"#utility.yul\":3128:3133   */\n      dup2\n        /* \"#utility.yul\":3117:3133   */\n      swap1\n      pop\n        /* \"#utility.yul\":3062:3139   */\n      swap2\n      swap1\n      pop\n      jump\t// out\n        /* \"#utility.yul\":3145:3267   */\n    tag_102:\n        /* \"#utility.yul\":3218:3242   */\n      tag_185\n        /* \"#utility.yul\":3236:3241   */\n      dup2\n        /* \"#utility.yul\":3218:3242   */\n      tag_101\n      jump\t// in\n    tag_185:\n        /* \"#utility.yul\":3211:3216   */\n      dup2\n        /* \"#utility.yul\":3208:3243   */\n      eq\n        /* \"#utility.yul\":3198:3261   */\n      tag_186\n      jumpi\n        /* \"#utility.yul\":3257:3258   */\n      0x00\n        /* \"#utility.yul\":3254:3255   */\n      dup1\n        /* \"#utility.yul\":3247:3259   */\n      revert\n        /* \"#utility.yul\":3198:3261   */\n    tag_186:\n        /* \"#utility.yul\":3145:3267   */\n      pop\n      jump\t// out\n        /* \"#utility.yul\":3273:3412   */\n    tag_103:\n        /* \"#utility.yul\":3319:3324   */\n      0x00\n        /* \"#utility.yul\":3357:3363   */\n      dup2\n        /* \"#utility.yul\":3344:3364   */\n      calldataload\n        /* \"#utility.yul\":3335:3364   */\n      swap1\n      pop\n        /* \"#utility.yul\":3373:3406   */\n      tag_188\n        /* \"#utility.yul\":3400:3405   */\n      dup2\n        /* \"#utility.yul\":3373:3406   */\n      tag_102\n      jump\t// in\n    tag_188:\n        /* \"#utility.yul\":3273:3412   */\n      swap3\n      swap2\n      pop\n      pop\n      jump\t// out\n        /* \"#utility.yul\":3418:3524   */\n    tag_104:\n        /* \"#utility.yul\":3498:3499   */\n      0x04\n        /* \"#utility.yul\":3491:3496   */\n      dup2\n        /* \"#utility.yul\":3488:3500   */\n      lt\n        /* \"#utility.yul\":3478:3518   */\n      tag_190\n      jumpi\n        /* \"#utility.yul\":3514:3515   */\n      0x00\n        /* \"#utility.yul\":3511:3512   */\n      dup1\n        /* \"#utility.yul\":3504:3516   */\n      revert\n        /* \"#utility.yul\":3478:3518   */\n    tag_190:\n        /* \"#utility.yul\":3418:3524   */\n      pop\n      jump\t// out\n        /* \"#utility.yul\":3530:3683   */\n    tag_105:\n        /* \"#utility.yul\":3583:3588   */\n      0x00\n        /* \"#utility.yul\":3621:3627   */\n      dup2\n        /* \"#utility.yul\":3608:3628   */\n      calldataload\n        /* \"#utility.yul\":3599:3628   */\n      swap1\n      pop\n        /* \"#utility.yul\":3637:3677   */\n      tag_192\n        /* \"#utility.yul\":3671:3676   */\n      dup2\n        /* \"#utility.yul\":3637:3677   */\n      tag_104\n      jump\t// in\n    tag_192:\n        /* \"#utility.yul\":3530:3683   */\n      swap3\n      swap2\n      pop\n      pop\n      jump\t// out\n        /* \"#utility.yul\":3689:3779   */\n    tag_106:\n        /* \"#utility.yul\":3723:3730   */\n      0x00\n        /* \"#utility.yul\":3766:3771   */\n      dup2\n        /* \"#utility.yul\":3759:3772   */\n      iszero\n        /* \"#utility.yul\":3752:3773   */\n      iszero\n        /* \"#utility.yul\":3741:3773   */\n      swap1\n      pop\n        /* \"#utility.yul\":3689:3779   */\n      swap2\n      swap1\n      pop\n      jump\t// out\n        /* \"#utility.yul\":3785:3901   */\n    tag_107:\n        /* \"#utility.yul\":3855:3876   */\n      tag_195\n        /* \"#utility.yul\":3870:3875   */\n      dup2\n        /* \"#utility.yul\":3855:3876   */\n      tag_106\n      jump\t// in\n    tag_195:\n        /* \"#utility.yul\":3848:3853   */\n      dup2\n        /* \"#utility.yul\":3845:3877   */\n      eq\n        /* \"#utility.yul\":3835:3895   */\n      tag_196\n      jumpi\n        /* \"#utility.yul\":3891:3892   */\n      0x00\n        /* \"#utility.yul\":3888:3889   */\n      dup1\n        /* \"#utility.yul\":3881:3893   */\n      revert\n        /* \"#utility.yul\":3835:3895   */\n    tag_196:\n        /* \"#utility.yul\":3785:3901   */\n      pop\n      jump\t// out\n        /* \"#utility.yul\":3907:4040   */\n    tag_108:\n        /* \"#utility.yul\":3950:3955   */\n      0x00\n        /* \"#utility.yul\":3988:3994   */\n      dup2\n        /* \"#utility.yul\":3975:3995   */\n      calldataload\n        /* \"#utility.yul\":3966:3995   */\n      swap1\n      pop\n        /* \"#utility.yul\":4004:4034   */\n      tag_198\n        /* \"#utility.yul\":4028:4033   */\n      dup2\n        /* \"#utility.yul\":4004:4034   */\n      tag_107\n      jump\t// in\n    tag_198:\n        /* \"#utility.yul\":3907:4040   */\n      swap3\n      swap2\n      pop\n      pop\n      jump\t// out\n        /* \"#utility.yul\":4046:5291   */\n    tag_10:\n        /* \"#utility.yul\":4164:4170   */\n      0x00\n        /* \"#utility.yul\":4172:4178   */\n      dup1\n        /* \"#utility.yul\":4180:4186   */\n      0x00\n        /* \"#utility.yul\":4188:4194   */\n      dup1\n        /* \"#utility.yul\":4196:4202   */\n      0x00\n        /* \"#utility.yul\":4204:4210   */\n      dup1\n        /* \"#utility.yul\":4253:4256   */\n      0xc0\n        /* \"#utility.yul\":4241:4250   */\n      dup8\n        /* \"#utility.yul\":4232:4239   */\n      dup10\n        /* \"#utility.yul\":4228:4251   */\n      sub\n        /* \"#utility.yul\":4224:4257   */\n      slt\n        /* \"#utility.yul\":4221:4341   */\n      iszero\n      tag_200\n      jumpi\n        /* \"#utility.yul\":4260:4339   */\n      tag_201\n      tag_85\n      jump\t// in\n    tag_201:\n        /* \"#utility.yul\":4221:4341   */\n    tag_200:\n        /* \"#utility.yul\":4380:4381   */\n      0x00\n        /* \"#utility.yul\":4405:4458   */\n      tag_202\n        /* \"#utility.yul\":4450:4457   */\n      dup10\n        /* \"#utility.yul\":4441:4447   */\n      dup3\n        /* \"#utility.yul\":4430:4439   */\n      dup11\n        /* \"#utility.yul\":4426:4448   */\n      add\n        /* \"#utility.yul\":4405:4458   */\n      tag_90\n      jump\t// in\n    tag_202:\n        /* \"#utility.yul\":4395:4458   */\n      swap7\n      pop\n        /* \"#utility.yul\":4351:4468   */\n      pop\n        /* \"#utility.yul\":4535:4537   */\n      0x20\n        /* \"#utility.yul\":4524:4533   */\n      dup8\n        /* \"#utility.yul\":4520:4538   */\n      add\n        /* \"#utility.yul\":4507:4539   */\n      calldataload\n        /* \"#utility.yul\":4566:4584   */\n      0xffffffffffffffff\n        /* \"#utility.yul\":4558:4564   */\n      dup2\n        /* \"#utility.yul\":4555:4585   */\n      gt\n        /* \"#utility.yul\":4552:4669   */\n      iszero\n      tag_203\n      jumpi\n        /* \"#utility.yul\":4588:4667   */\n      tag_204\n      tag_86\n      jump\t// in\n    tag_204:\n        /* \"#utility.yul\":4552:4669   */\n    tag_203:\n        /* \"#utility.yul\":4693:4756   */\n      tag_205\n        /* \"#utility.yul\":4748:4755   */\n      dup10\n        /* \"#utility.yul\":4739:4745   */\n      dup3\n        /* \"#utility.yul\":4728:4737   */\n      dup11\n        /* \"#utility.yul\":4724:4746   */\n      add\n        /* \"#utility.yul\":4693:4756   */\n      tag_100\n      jump\t// in\n    tag_205:\n        /* \"#utility.yul\":4683:4756   */\n      swap6\n      pop\n        /* \"#utility.yul\":4478:4766   */\n      pop\n        /* \"#utility.yul\":4805:4807   */\n      0x40\n        /* \"#utility.yul\":4831:4884   */\n      tag_206\n        /* \"#utility.yul\":4876:4883   */\n      dup10\n        /* \"#utility.yul\":4867:4873   */\n      dup3\n        /* \"#utility.yul\":4856:4865   */\n      dup11\n        /* \"#utility.yul\":4852:4874   */\n      add\n        /* \"#utility.yul\":4831:4884   */\n      tag_103\n      jump\t// in\n    tag_206:\n        /* \"#utility.yul\":4821:4884   */\n      swap5\n      pop\n        /* \"#utility.yul\":4776:4894   */\n      pop\n        /* \"#utility.yul\":4933:4935   */\n      0x60\n        /* \"#utility.yul\":4959:5012   */\n      tag_207\n        /* \"#utility.yul\":5004:5011   */\n      dup10\n        /* \"#utility.yul\":4995:5001   */\n      dup3\n        /* \"#utility.yul\":4984:4993   */\n      dup11\n        /* \"#utility.yul\":4980:5002   */\n      add\n        /* \"#utility.yul\":4959:5012   */\n      tag_103\n      jump\t// in\n    tag_207:\n        /* \"#utility.yul\":4949:5012   */\n      swap4\n      pop\n        /* \"#utility.yul\":4904:5022   */\n      pop\n        /* \"#utility.yul\":5061:5064   */\n      0x80\n        /* \"#utility.yul\":5088:5148   */\n      tag_208\n        /* \"#utility.yul\":5140:5147   */\n      dup10\n        /* \"#utility.yul\":5131:5137   */\n      dup3\n        /* \"#utility.yul\":5120:5129   */\n      dup11\n        /* \"#utility.yul\":5116:5138   */\n      add\n        /* \"#utility.yul\":5088:5148   */\n      tag_105\n      jump\t// in\n    tag_208:\n        /* \"#utility.yul\":5078:5148   */\n      swap3\n      pop\n        /* \"#utility.yul\":5032:5158   */\n      pop\n        /* \"#utility.yul\":5197:5200   */\n      0xa0\n        /* \"#utility.yul\":5224:5274   */\n      tag_209\n        /* \"#utility.yul\":5266:5273   */\n      dup10\n        /* \"#utility.yul\":5257:5263   */\n      dup3\n        /* \"#utility.yul\":5246:5255   */\n      dup11\n        /* \"#utility.yul\":5242:5264   */\n      add\n        /* \"#utility.yul\":5224:5274   */\n      tag_108\n      jump\t// in\n    tag_209:\n        /* \"#utility.yul\":5214:5274   */\n      swap2\n      pop\n        /* \"#utility.yul\":5168:5284   */\n      pop\n        /* \"#utility.yul\":4046:5291   */\n      swap3\n      swap6\n      pop\n      swap3\n      swap6\n      pop\n      swap3\n      swap6\n      jump\t// out\n        /* \"#utility.yul\":5297:5626   */\n    tag_14:\n        /* \"#utility.yul\":5356:5362   */\n      0x00\n        /* \"#utility.yul\":5405:5407   */\n      0x20\n        /* \"#utility.yul\":5393:5402   */\n      dup3\n        /* \"#utility.yul\":5384:5391   */\n      dup5\n        /* \"#utility.yul\":5380:5403   */\n      sub\n        /* \"#utility.yul\":5376:5408   */\n      slt\n        /* \"#utility.yul\":5373:5492   */\n      iszero\n      tag_211\n      jumpi\n        /* \"#utility.yul\":5411:5490   */\n      tag_212\n      tag_85\n      jump\t// in\n    tag_212:\n        /* \"#utility.yul\":5373:5492   */\n    tag_211:\n        /* \"#utility.yul\":5531:5532   */\n      0x00\n        /* \"#utility.yul\":5556:5609   */\n      tag_213\n        /* \"#utility.yul\":5601:5608   */\n      dup5\n        /* \"#utility.yul\":5592:5598   */\n      dup3\n        /* \"#utility.yul\":5581:5590   */\n      dup6\n        /* \"#utility.yul\":5577:5599   */\n      add\n        /* \"#utility.yul\":5556:5609   */\n      tag_90\n      jump\t// in\n    tag_213:\n        /* \"#utility.yul\":5546:5609   */\n      swap2\n      pop\n        /* \"#utility.yul\":5502:5619   */\n      pop\n        /* \"#utility.yul\":5297:5626   */\n      swap3\n      swap2\n      pop\n      pop\n      jump\t// out\n        /* \"#utility.yul\":5632:5731   */\n    tag_109:\n        /* \"#utility.yul\":5684:5690   */\n      0x00\n        /* \"#utility.yul\":5718:5723   */\n      dup2\n        /* \"#utility.yul\":5712:5724   */\n      mload\n        /* \"#utility.yul\":5702:5724   */\n      swap1\n      pop\n        /* \"#utility.yul\":5632:5731   */\n      swap2\n      swap1\n      pop\n      jump\t// out\n        /* \"#utility.yul\":5737:5906   */\n    tag_110:\n        /* \"#utility.yul\":5821:5832   */\n      0x00\n        /* \"#utility.yul\":5855:5861   */\n      dup3\n        /* \"#utility.yul\":5850:5853   */\n      dup3\n        /* \"#utility.yul\":5843:5862   */\n      mstore\n        /* \"#utility.yul\":5895:5899   */\n      0x20\n        /* \"#utility.yul\":5890:5893   */\n      dup3\n        /* \"#utility.yul\":5886:5900   */\n      add\n        /* \"#utility.yul\":5871:5900   */\n      swap1\n      pop\n        /* \"#utility.yul\":5737:5906   */\n      swap3\n      swap2\n      pop\n      pop\n      jump\t// out\n        /* \"#utility.yul\":5912:6051   */\n    tag_111:\n        /* \"#utility.yul\":6001:6007   */\n      dup3\n        /* \"#utility.yul\":5996:5999   */\n      dup2\n        /* \"#utility.yul\":5991:5994   */\n      dup4\n        /* \"#utility.yul\":5985:6008   */\n      mcopy\n        /* \"#utility.yul\":6042:6043   */\n      0x00\n        /* \"#utility.yul\":6033:6039   */\n      dup4\n        /* \"#utility.yul\":6028:6031   */\n      dup4\n        /* \"#utility.yul\":6024:6040   */\n      add\n        /* \"#utility.yul\":6017:6044   */\n      mstore\n        /* \"#utility.yul\":5912:6051   */\n      pop\n      pop\n      pop\n      jump\t// out\n        /* \"#utility.yul\":6057:6434   */\n    tag_112:\n        /* \"#utility.yul\":6145:6148   */\n      0x00\n        /* \"#utility.yul\":6173:6212   */\n      tag_218\n        /* \"#utility.yul\":6206:6211   */\n      dup3\n        /* \"#utility.yul\":6173:6212   */\n      tag_109\n      jump\t// in\n    tag_218:\n        /* \"#utility.yul\":6228:6299   */\n      tag_219\n        /* \"#utility.yul\":6292:6298   */\n      dup2\n        /* \"#utility.yul\":6287:6290   */\n      dup6\n        /* \"#utility.yul\":6228:6299   */\n      tag_110\n      jump\t// in\n    tag_219:\n        /* \"#utility.yul\":6221:6299   */\n      swap4\n      pop\n        /* \"#utility.yul\":6308:6373   */\n      tag_220\n        /* \"#utility.yul\":6366:6372   */\n      dup2\n        /* \"#utility.yul\":6361:6364   */\n      dup6\n        /* \"#utility.yul\":6354:6358   */\n      0x20\n        /* \"#utility.yul\":6347:6352   */\n      dup7\n        /* \"#utility.yul\":6343:6359   */\n      add\n        /* \"#utility.yul\":6308:6373   */\n      tag_111\n      jump\t// in\n    tag_220:\n        /* \"#utility.yul\":6398:6427   */\n      tag_221\n        /* \"#utility.yul\":6420:6426   */\n      dup2\n        /* \"#utility.yul\":6398:6427   */\n      tag_93\n      jump\t// in\n    tag_221:\n        /* \"#utility.yul\":6393:6396   */\n      dup5\n        /* \"#utility.yul\":6389:6428   */\n      add\n        /* \"#utility.yul\":6382:6428   */\n      swap2\n      pop\n        /* \"#utility.yul\":6149:6434   */\n      pop\n        /* \"#utility.yul\":6057:6434   */\n      swap3\n      swap2\n      pop\n      pop\n      jump\t// out\n        /* \"#utility.yul\":6440:6558   */\n    tag_113:\n        /* \"#utility.yul\":6527:6551   */\n      tag_223\n        /* \"#utility.yul\":6545:6550   */\n      dup2\n        /* \"#utility.yul\":6527:6551   */\n      tag_101\n      jump\t// in\n    tag_223:\n        /* \"#utility.yul\":6522:6525   */\n      dup3\n        /* \"#utility.yul\":6515:6552   */\n      mstore\n        /* \"#utility.yul\":6440:6558   */\n      pop\n      pop\n      jump\t// out\n        /* \"#utility.yul\":6564:6744   */\n    tag_37:\n        /* \"#utility.yul\":6612:6689   */\n      0x4e487b7100000000000000000000000000000000000000000000000000000000\n        /* \"#utility.yul\":6609:6610   */\n      0x00\n        /* \"#utility.yul\":6602:6690   */\n      mstore\n        /* \"#utility.yul\":6709:6713   */\n      0x21\n        /* \"#utility.yul\":6706:6707   */\n      0x04\n        /* \"#utility.yul\":6699:6714   */\n      mstore\n        /* \"#utility.yul\":6733:6737   */\n      0x24\n        /* \"#utility.yul\":6730:6731   */\n      0x00\n        /* \"#utility.yul\":6723:6738   */\n      revert\n        /* \"#utility.yul\":6750:6862   */\n    tag_114:\n        /* \"#utility.yul\":6830:6831   */\n      0x04\n        /* \"#utility.yul\":6823:6828   */\n      dup2\n        /* \"#utility.yul\":6820:6832   */\n      lt\n        /* \"#utility.yul\":6810:6856   */\n      tag_226\n      jumpi\n        /* \"#utility.yul\":6836:6854   */\n      tag_227\n      tag_37\n      jump\t// in\n    tag_227:\n        /* \"#utility.yul\":6810:6856   */\n    tag_226:\n        /* \"#utility.yul\":6750:6862   */\n      pop\n      jump\t// out\n        /* \"#utility.yul\":6868:6993   */\n    tag_115:\n        /* \"#utility.yul\":6912:6919   */\n      0x00\n        /* \"#utility.yul\":6941:6946   */\n      dup2\n        /* \"#utility.yul\":6930:6946   */\n      swap1\n      pop\n        /* \"#utility.yul\":6947:6987   */\n      tag_229\n        /* \"#utility.yul\":6981:6986   */\n      dup3\n        /* \"#utility.yul\":6947:6987   */\n      tag_114\n      jump\t// in\n    tag_229:\n        /* \"#utility.yul\":6868:6993   */\n      swap2\n      swap1\n      pop\n      jump\t// out\n        /* \"#utility.yul\":6999:7124   */\n    tag_116:\n        /* \"#utility.yul\":7054:7063   */\n      0x00\n        /* \"#utility.yul\":7087:7118   */\n      tag_231\n        /* \"#utility.yul\":7112:7117   */\n      dup3\n        /* \"#utility.yul\":7087:7118   */\n      tag_115\n      jump\t// in\n    tag_231:\n        /* \"#utility.yul\":7074:7118   */\n      swap1\n      pop\n        /* \"#utility.yul\":6999:7124   */\n      swap2\n      swap1\n      pop\n      jump\t// out\n        /* \"#utility.yul\":7130:7271   */\n    tag_117:\n        /* \"#utility.yul\":7222:7264   */\n      tag_233\n        /* \"#utility.yul\":7258:7263   */\n      dup2\n        /* \"#utility.yul\":7222:7264   */\n      tag_116\n      jump\t// in\n    tag_233:\n        /* \"#utility.yul\":7217:7220   */\n      dup3\n        /* \"#utility.yul\":7210:7265   */\n      mstore\n        /* \"#utility.yul\":7130:7271   */\n      pop\n      pop\n      jump\t// out\n        /* \"#utility.yul\":7277:7386   */\n    tag_118:\n        /* \"#utility.yul\":7358:7379   */\n      tag_235\n        /* \"#utility.yul\":7373:7378   */\n      dup2\n        /* \"#utility.yul\":7358:7379   */\n      tag_106\n      jump\t// in\n    tag_235:\n        /* \"#utility.yul\":7353:7356   */\n      dup3\n        /* \"#utility.yul\":7346:7380   */\n      mstore\n        /* \"#utility.yul\":7277:7386   */\n      pop\n      pop\n      jump\t// out\n        /* \"#utility.yul\":7392:8145   */\n    tag_17:\n        /* \"#utility.yul\":7616:7620   */\n      0x00\n        /* \"#utility.yul\":7654:7657   */\n      0xa0\n        /* \"#utility.yul\":7643:7652   */\n      dup3\n        /* \"#utility.yul\":7639:7658   */\n      add\n        /* \"#utility.yul\":7631:7658   */\n      swap1\n      pop\n        /* \"#utility.yul\":7704:7713   */\n      dup2\n        /* \"#utility.yul\":7698:7702   */\n      dup2\n        /* \"#utility.yul\":7694:7714   */\n      sub\n        /* \"#utility.yul\":7690:7691   */\n      0x00\n        /* \"#utility.yul\":7679:7688   */\n      dup4\n        /* \"#utility.yul\":7675:7692   */\n      add\n        /* \"#utility.yul\":7668:7715   */\n      mstore\n        /* \"#utility.yul\":7732:7810   */\n      tag_237\n        /* \"#utility.yul\":7805:7809   */\n      dup2\n        /* \"#utility.yul\":7796:7802   */\n      dup9\n        /* \"#utility.yul\":7732:7810   */\n      tag_112\n      jump\t// in\n    tag_237:\n        /* \"#utility.yul\":7724:7810   */\n      swap1\n      pop\n        /* \"#utility.yul\":7820:7892   */\n      tag_238\n        /* \"#utility.yul\":7888:7890   */\n      0x20\n        /* \"#utility.yul\":7877:7886   */\n      dup4\n        /* \"#utility.yul\":7873:7891   */\n      add\n        /* \"#utility.yul\":7864:7870   */\n      dup8\n        /* \"#utility.yul\":7820:7892   */\n      tag_113\n      jump\t// in\n    tag_238:\n        /* \"#utility.yul\":7902:7974   */\n      tag_239\n        /* \"#utility.yul\":7970:7972   */\n      0x40\n        /* \"#utility.yul\":7959:7968   */\n      dup4\n        /* \"#utility.yul\":7955:7973   */\n      add\n        /* \"#utility.yul\":7946:7952   */\n      dup7\n        /* \"#utility.yul\":7902:7974   */\n      tag_113\n      jump\t// in\n    tag_239:\n        /* \"#utility.yul\":7984:8061   */\n      tag_240\n        /* \"#utility.yul\":8057:8059   */\n      0x60\n        /* \"#utility.yul\":8046:8055   */\n      dup4\n        /* \"#utility.yul\":8042:8060   */\n      add\n        /* \"#utility.yul\":8033:8039   */\n      dup6\n        /* \"#utility.yul\":7984:8061   */\n      tag_117\n      jump\t// in\n    tag_240:\n        /* \"#utility.yul\":8071:8138   */\n      tag_241\n        /* \"#utility.yul\":8133:8136   */\n      0x80\n        /* \"#utility.yul\":8122:8131   */\n      dup4\n        /* \"#utility.yul\":8118:8137   */\n      add\n        /* \"#utility.yul\":8109:8115   */\n      dup5\n        /* \"#utility.yul\":8071:8138   */\n      tag_118\n      jump\t// in\n    tag_241:\n        /* \"#utility.yul\":7392:8145   */\n      swap7\n      swap6\n      pop\n      pop\n      pop\n      pop\n      pop\n      pop\n      jump\t// out\n        /* \"#utility.yul\":8151:8361   */\n    tag_22:\n        /* \"#utility.yul\":8238:8242   */\n      0x00\n        /* \"#utility.yul\":8276:8278   */\n      0x20\n        /* \"#utility.yul\":8265:8274   */\n      dup3\n        /* \"#utility.yul\":8261:8279   */\n      add\n        /* \"#utility.yul\":8253:8279   */\n      swap1\n      pop\n        /* \"#utility.yul\":8289:8354   */\n      tag_243\n        /* \"#utility.yul\":8351:8352   */\n      0x00\n        /* \"#utility.yul\":8340:8349   */\n      dup4\n        /* \"#utility.yul\":8336:8353   */\n      add\n        /* \"#utility.yul\":8327:8333   */\n      dup5\n        /* \"#utility.yul\":8289:8354   */\n      tag_118\n      jump\t// in\n    tag_243:\n        /* \"#utility.yul\":8151:8361   */\n      swap3\n      swap2\n      pop\n      pop\n      jump\t// out\n        /* \"#utility.yul\":8367:8680   */\n    tag_27:\n        /* \"#utility.yul\":8480:8484   */\n      0x00\n        /* \"#utility.yul\":8518:8520   */\n      0x20\n        /* \"#utility.yul\":8507:8516   */\n      dup3\n        /* \"#utility.yul\":8503:8521   */\n      add\n        /* \"#utility.yul\":8495:8521   */\n      swap1\n      pop\n        /* \"#utility.yul\":8567:8576   */\n      dup2\n        /* \"#utility.yul\":8561:8565   */\n      dup2\n        /* \"#utility.yul\":8557:8577   */\n      sub\n        /* \"#utility.yul\":8553:8554   */\n      0x00\n        /* \"#utility.yul\":8542:8551   */\n      dup4\n        /* \"#utility.yul\":8538:8555   */\n      add\n        /* \"#utility.yul\":8531:8578   */\n      mstore\n        /* \"#utility.yul\":8595:8673   */\n      tag_245\n        /* \"#utility.yul\":8668:8672   */\n      dup2\n        /* \"#utility.yul\":8659:8665   */\n      dup5\n        /* \"#utility.yul\":8595:8673   */\n      tag_112\n      jump\t// in\n    tag_245:\n        /* \"#utility.yul\":8587:8673   */\n      swap1\n      pop\n        /* \"#utility.yul\":8367:8680   */\n      swap3\n      swap2\n      pop\n      pop\n      jump\t// out\n        /* \"#utility.yul\":8686:9160   */\n    tag_30:\n        /* \"#utility.yul\":8754:8760   */\n      0x00\n        /* \"#utility.yul\":8762:8768   */\n      dup1\n        /* \"#utility.yul\":8811:8813   */\n      0x40\n        /* \"#utility.yul\":8799:8808   */\n      dup4\n        /* \"#utility.yul\":8790:8797   */\n      dup6\n        /* \"#utility.yul\":8786:8809   */\n      sub\n        /* \"#utility.yul\":8782:8814   */\n      slt\n        /* \"#utility.yul\":8779:8898   */\n      iszero\n      tag_247\n      jumpi\n        /* \"#utility.yul\":8817:8896   */\n      tag_248\n      tag_85\n      jump\t// in\n    tag_248:\n        /* \"#utility.yul\":8779:8898   */\n    tag_247:\n        /* \"#utility.yul\":8937:8938   */\n      0x00\n        /* \"#utility.yul\":8962:9015   */\n      tag_249\n        /* \"#utility.yul\":9007:9014   */\n      dup6\n        /* \"#utility.yul\":8998:9004   */\n      dup3\n        /* \"#utility.yul\":8987:8996   */\n      dup7\n        /* \"#utility.yul\":8983:9005   */\n      add\n        /* \"#utility.yul\":8962:9015   */\n      tag_90\n      jump\t// in\n    tag_249:\n        /* \"#utility.yul\":8952:9015   */\n      swap3\n      pop\n        /* \"#utility.yul\":8908:9025   */\n      pop\n        /* \"#utility.yul\":9064:9066   */\n      0x20\n        /* \"#utility.yul\":9090:9143   */\n      tag_250\n        /* \"#utility.yul\":9135:9142   */\n      dup6\n        /* \"#utility.yul\":9126:9132   */\n      dup3\n        /* \"#utility.yul\":9115:9124   */\n      dup7\n        /* \"#utility.yul\":9111:9133   */\n      add\n        /* \"#utility.yul\":9090:9143   */\n      tag_103\n      jump\t// in\n    tag_250:\n        /* \"#utility.yul\":9080:9143   */\n      swap2\n      pop\n        /* \"#utility.yul\":9035:9153   */\n      pop\n        /* \"#utility.yul\":8686:9160   */\n      swap3\n      pop\n      swap3\n      swap1\n      pop\n      jump\t// out\n        /* \"#utility.yul\":9166:9325   */\n    tag_119:\n        /* \"#utility.yul\":9240:9251   */\n      0x00\n        /* \"#utility.yul\":9274:9280   */\n      dup3\n        /* \"#utility.yul\":9269:9272   */\n      dup3\n        /* \"#utility.yul\":9262:9281   */\n      mstore\n        /* \"#utility.yul\":9314:9318   */\n      0x20\n        /* \"#utility.yul\":9309:9312   */\n      dup3\n        /* \"#utility.yul\":9305:9319   */\n      add\n        /* \"#utility.yul\":9290:9319   */\n      swap1\n      pop\n        /* \"#utility.yul\":9166:9325   */\n      swap3\n      swap2\n      pop\n      pop\n      jump\t// out\n        /* \"#utility.yul\":9331:9688   */\n    tag_120:\n        /* \"#utility.yul\":9409:9412   */\n      0x00\n        /* \"#utility.yul\":9437:9476   */\n      tag_253\n        /* \"#utility.yul\":9470:9475   */\n      dup3\n        /* \"#utility.yul\":9437:9476   */\n      tag_109\n      jump\t// in\n    tag_253:\n        /* \"#utility.yul\":9492:9553   */\n      tag_254\n        /* \"#utility.yul\":9546:9552   */\n      dup2\n        /* \"#utility.yul\":9541:9544   */\n      dup6\n        /* \"#utility.yul\":9492:9553   */\n      tag_119\n      jump\t// in\n    tag_254:\n        /* \"#utility.yul\":9485:9553   */\n      swap4\n      pop\n        /* \"#utility.yul\":9562:9627   */\n      tag_255\n        /* \"#utility.yul\":9620:9626   */\n      dup2\n        /* \"#utility.yul\":9615:9618   */\n      dup6\n        /* \"#utility.yul\":9608:9612   */\n      0x20\n        /* \"#utility.yul\":9601:9606   */\n      dup7\n        /* \"#utility.yul\":9597:9613   */\n      add\n        /* \"#utility.yul\":9562:9627   */\n      tag_111\n      jump\t// in\n    tag_255:\n        /* \"#utility.yul\":9652:9681   */\n      tag_256\n        /* \"#utility.yul\":9674:9680   */\n      dup2\n        /* \"#utility.yul\":9652:9681   */\n      tag_93\n      jump\t// in\n    tag_256:\n        /* \"#utility.yul\":9647:9650   */\n      dup5\n        /* \"#utility.yul\":9643:9682   */\n      add\n        /* \"#utility.yul\":9636:9682   */\n      swap2\n      pop\n        /* \"#utility.yul\":9413:9688   */\n      pop\n        /* \"#utility.yul\":9331:9688   */\n      swap3\n      swap2\n      pop\n      pop\n      jump\t// out\n        /* \"#utility.yul\":9694:9802   */\n    tag_121:\n        /* \"#utility.yul\":9771:9795   */\n      tag_258\n        /* \"#utility.yul\":9789:9794   */\n      dup2\n        /* \"#utility.yul\":9771:9795   */\n      tag_101\n      jump\t// in\n    tag_258:\n        /* \"#utility.yul\":9766:9769   */\n      dup3\n        /* \"#utility.yul\":9759:9796   */\n      mstore\n        /* \"#utility.yul\":9694:9802   */\n      pop\n      pop\n      jump\t// out\n        /* \"#utility.yul\":9808:9939   */\n    tag_122:\n        /* \"#utility.yul\":9890:9932   */\n      tag_260\n        /* \"#utility.yul\":9926:9931   */\n      dup2\n        /* \"#utility.yul\":9890:9932   */\n      tag_116\n      jump\t// in\n    tag_260:\n        /* \"#utility.yul\":9885:9888   */\n      dup3\n        /* \"#utility.yul\":9878:9933   */\n      mstore\n        /* \"#utility.yul\":9808:9939   */\n      pop\n      pop\n      jump\t// out\n        /* \"#utility.yul\":9945:10044   */\n    tag_123:\n        /* \"#utility.yul\":10016:10037   */\n      tag_262\n        /* \"#utility.yul\":10031:10036   */\n      dup2\n        /* \"#utility.yul\":10016:10037   */\n      tag_106\n      jump\t// in\n    tag_262:\n        /* \"#utility.yul\":10011:10014   */\n      dup3\n        /* \"#utility.yul\":10004:10038   */\n      mstore\n        /* \"#utility.yul\":9945:10044   */\n      pop\n      pop\n      jump\t// out\n        /* \"#utility.yul\":10110:11264   */\n    tag_124:\n        /* \"#utility.yul\":10225:10228   */\n      0x00\n        /* \"#utility.yul\":10261:10265   */\n      0xa0\n        /* \"#utility.yul\":10256:10259   */\n      dup4\n        /* \"#utility.yul\":10252:10266   */\n      add\n        /* \"#utility.yul\":10348:10352   */\n      0x00\n        /* \"#utility.yul\":10341:10346   */\n      dup4\n        /* \"#utility.yul\":10337:10353   */\n      add\n        /* \"#utility.yul\":10331:10354   */\n      mload\n        /* \"#utility.yul\":10401:10404   */\n      dup5\n        /* \"#utility.yul\":10395:10399   */\n      dup3\n        /* \"#utility.yul\":10391:10405   */\n      sub\n        /* \"#utility.yul\":10384:10388   */\n      0x00\n        /* \"#utility.yul\":10379:10382   */\n      dup7\n        /* \"#utility.yul\":10375:10389   */\n      add\n        /* \"#utility.yul\":10368:10406   */\n      mstore\n        /* \"#utility.yul\":10427:10500   */\n      tag_264\n        /* \"#utility.yul\":10495:10499   */\n      dup3\n        /* \"#utility.yul\":10481:10493   */\n      dup3\n        /* \"#utility.yul\":10427:10500   */\n      tag_120\n      jump\t// in\n    tag_264:\n        /* \"#utility.yul\":10419:10500   */\n      swap2\n      pop\n        /* \"#utility.yul\":10276:10511   */\n      pop\n        /* \"#utility.yul\":10593:10597   */\n      0x20\n        /* \"#utility.yul\":10586:10591   */\n      dup4\n        /* \"#utility.yul\":10582:10598   */\n      add\n        /* \"#utility.yul\":10576:10599   */\n      mload\n        /* \"#utility.yul\":10612:10675   */\n      tag_265\n        /* \"#utility.yul\":10669:10673   */\n      0x20\n        /* \"#utility.yul\":10664:10667   */\n      dup7\n        /* \"#utility.yul\":10660:10674   */\n      add\n        /* \"#utility.yul\":10646:10658   */\n      dup3\n        /* \"#utility.yul\":10612:10675   */\n      tag_121\n      jump\t// in\n    tag_265:\n        /* \"#utility.yul\":10521:10685   */\n      pop\n        /* \"#utility.yul\":10770:10774   */\n      0x40\n        /* \"#utility.yul\":10763:10768   */\n      dup4\n        /* \"#utility.yul\":10759:10775   */\n      add\n        /* \"#utility.yul\":10753:10776   */\n      mload\n        /* \"#utility.yul\":10789:10852   */\n      tag_266\n        /* \"#utility.yul\":10846:10850   */\n      0x40\n        /* \"#utility.yul\":10841:10844   */\n      dup7\n        /* \"#utility.yul\":10837:10851   */\n      add\n        /* \"#utility.yul\":10823:10835   */\n      dup3\n        /* \"#utility.yul\":10789:10852   */\n      tag_121\n      jump\t// in\n    tag_266:\n        /* \"#utility.yul\":10695:10862   */\n      pop\n        /* \"#utility.yul\":10956:10960   */\n      0x60\n        /* \"#utility.yul\":10949:10954   */\n      dup4\n        /* \"#utility.yul\":10945:10961   */\n      add\n        /* \"#utility.yul\":10939:10962   */\n      mload\n        /* \"#utility.yul\":10975:11043   */\n      tag_267\n        /* \"#utility.yul\":11037:11041   */\n      0x60\n        /* \"#utility.yul\":11032:11035   */\n      dup7\n        /* \"#utility.yul\":11028:11042   */\n      add\n        /* \"#utility.yul\":11014:11026   */\n      dup3\n        /* \"#utility.yul\":10975:11043   */\n      tag_122\n      jump\t// in\n    tag_267:\n        /* \"#utility.yul\":10872:11053   */\n      pop\n        /* \"#utility.yul\":11151:11155   */\n      0x80\n        /* \"#utility.yul\":11144:11149   */\n      dup4\n        /* \"#utility.yul\":11140:11156   */\n      add\n        /* \"#utility.yul\":11134:11157   */\n      mload\n        /* \"#utility.yul\":11170:11227   */\n      tag_268\n        /* \"#utility.yul\":11221:11225   */\n      0x80\n        /* \"#utility.yul\":11216:11219   */\n      dup7\n        /* \"#utility.yul\":11212:11226   */\n      add\n        /* \"#utility.yul\":11198:11210   */\n      dup3\n        /* \"#utility.yul\":11170:11227   */\n      tag_123\n      jump\t// in\n    tag_268:\n        /* \"#utility.yul\":11063:11237   */\n      pop\n        /* \"#utility.yul\":11254:11258   */\n      dup1\n        /* \"#utility.yul\":11247:11258   */\n      swap2\n      pop\n        /* \"#utility.yul\":10230:11264   */\n      pop\n        /* \"#utility.yul\":10110:11264   */\n      swap3\n      swap2\n      pop\n      pop\n      jump\t// out\n        /* \"#utility.yul\":11270:11836   */\n    tag_33:\n        /* \"#utility.yul\":11457:11461   */\n      0x00\n        /* \"#utility.yul\":11495:11497   */\n      0x40\n        /* \"#utility.yul\":11484:11493   */\n      dup3\n        /* \"#utility.yul\":11480:11498   */\n      add\n        /* \"#utility.yul\":11472:11498   */\n      swap1\n      pop\n        /* \"#utility.yul\":11544:11553   */\n      dup2\n        /* \"#utility.yul\":11538:11542   */\n      dup2\n        /* \"#utility.yul\":11534:11554   */\n      sub\n        /* \"#utility.yul\":11530:11531   */\n      0x00\n        /* \"#utility.yul\":11519:11528   */\n      dup4\n        /* \"#utility.yul\":11515:11532   */\n      add\n        /* \"#utility.yul\":11508:11555   */\n      mstore\n        /* \"#utility.yul\":11572:11676   */\n      tag_270\n        /* \"#utility.yul\":11671:11675   */\n      dup2\n        /* \"#utility.yul\":11662:11668   */\n      dup6\n        /* \"#utility.yul\":11572:11676   */\n      tag_124\n      jump\t// in\n    tag_270:\n        /* \"#utility.yul\":11564:11676   */\n      swap1\n      pop\n        /* \"#utility.yul\":11723:11732   */\n      dup2\n        /* \"#utility.yul\":11717:11721   */\n      dup2\n        /* \"#utility.yul\":11713:11733   */\n      sub\n        /* \"#utility.yul\":11708:11710   */\n      0x20\n        /* \"#utility.yul\":11697:11706   */\n      dup4\n        /* \"#utility.yul\":11693:11711   */\n      add\n        /* \"#utility.yul\":11686:11734   */\n      mstore\n        /* \"#utility.yul\":11751:11829   */\n      tag_271\n        /* \"#utility.yul\":11824:11828   */\n      dup2\n        /* \"#utility.yul\":11815:11821   */\n      dup5\n        /* \"#utility.yul\":11751:11829   */\n      tag_112\n      jump\t// in\n    tag_271:\n        /* \"#utility.yul\":11743:11829   */\n      swap1\n      pop\n        /* \"#utility.yul\":11270:11836   */\n      swap4\n      swap3\n      pop\n      pop\n      pop\n      jump\t// out\n        /* \"#utility.yul\":11842:12022   */\n    tag_125:\n        /* \"#utility.yul\":11890:11967   */\n      0x4e487b7100000000000000000000000000000000000000000000000000000000\n        /* \"#utility.yul\":11887:11888   */\n      0x00\n        /* \"#utility.yul\":11880:11968   */\n      mstore\n        /* \"#utility.yul\":11987:11991   */\n      0x22\n        /* \"#utility.yul\":11984:11985   */\n      0x04\n        /* \"#utility.yul\":11977:11992   */\n      mstore\n        /* \"#utility.yul\":12011:12015   */\n      0x24\n        /* \"#utility.yul\":12008:12009   */\n      0x00\n        /* \"#utility.yul\":12001:12016   */\n      revert\n        /* \"#utility.yul\":12028:12348   */\n    tag_43:\n        /* \"#utility.yul\":12072:12078   */\n      0x00\n        /* \"#utility.yul\":12109:12110   */\n      0x02\n        /* \"#utility.yul\":12103:12107   */\n      dup3\n        /* \"#utility.yul\":12099:12111   */\n      div\n        /* \"#utility.yul\":12089:12111   */\n      swap1\n      pop\n        /* \"#utility.yul\":12156:12157   */\n      0x01\n        /* \"#utility.yul\":12150:12154   */\n      dup3\n        /* \"#utility.yul\":12146:12158   */\n      and\n        /* \"#utility.yul\":12177:12195   */\n      dup1\n        /* \"#utility.yul\":12167:12248   */\n      tag_274\n      jumpi\n        /* \"#utility.yul\":12233:12237   */\n      0x7f\n        /* \"#utility.yul\":12225:12231   */\n      dup3\n        /* \"#utility.yul\":12221:12238   */\n      and\n        /* \"#utility.yul\":12211:12238   */\n      swap2\n      pop\n        /* \"#utility.yul\":12167:12248   */\n    tag_274:\n        /* \"#utility.yul\":12295:12297   */\n      0x20\n        /* \"#utility.yul\":12287:12293   */\n      dup3\n        /* \"#utility.yul\":12284:12298   */\n      lt\n        /* \"#utility.yul\":12264:12282   */\n      dup2\n        /* \"#utility.yul\":12261:12299   */\n      sub\n        /* \"#utility.yul\":12258:12342   */\n      tag_275\n      jumpi\n        /* \"#utility.yul\":12314:12332   */\n      tag_276\n      tag_125\n      jump\t// in\n    tag_276:\n        /* \"#utility.yul\":12258:12342   */\n    tag_275:\n        /* \"#utility.yul\":12079:12348   */\n      pop\n        /* \"#utility.yul\":12028:12348   */\n      swap2\n      swap1\n      pop\n      jump\t// out\n        /* \"#utility.yul\":12354:12495   */\n    tag_126:\n        /* \"#utility.yul\":12403:12407   */\n      0x00\n        /* \"#utility.yul\":12426:12429   */\n      dup2\n        /* \"#utility.yul\":12418:12429   */\n      swap1\n      pop\n        /* \"#utility.yul\":12449:12452   */\n      dup2\n        /* \"#utility.yul\":12446:12447   */\n      0x00\n        /* \"#utility.yul\":12439:12453   */\n      mstore\n        /* \"#utility.yul\":12483:12487   */\n      0x20\n        /* \"#utility.yul\":12480:12481   */\n      0x00\n        /* \"#utility.yul\":12470:12488   */\n      keccak256\n        /* \"#utility.yul\":12462:12488   */\n      swap1\n      pop\n        /* \"#utility.yul\":12354:12495   */\n      swap2\n      swap1\n      pop\n      jump\t// out\n        /* \"#utility.yul\":12501:12594   */\n    tag_127:\n        /* \"#utility.yul\":12538:12544   */\n      0x00\n        /* \"#utility.yul\":12585:12587   */\n      0x20\n        /* \"#utility.yul\":12580:12582   */\n      0x1f\n        /* \"#utility.yul\":12573:12578   */\n      dup4\n        /* \"#utility.yul\":12569:12583   */\n      add\n        /* \"#utility.yul\":12565:12588   */\n      div\n        /* \"#utility.yul\":12555:12588   */\n      swap1\n      pop\n        /* \"#utility.yul\":12501:12594   */\n      swap2\n      swap1\n      pop\n      jump\t// out\n        /* \"#utility.yul\":12600:12707   */\n    tag_128:\n        /* \"#utility.yul\":12644:12652   */\n      0x00\n        /* \"#utility.yul\":12694:12699   */\n      dup3\n        /* \"#utility.yul\":12688:12692   */\n      dup3\n        /* \"#utility.yul\":12684:12700   */\n      shl\n        /* \"#utility.yul\":12663:12700   */\n      swap1\n      pop\n        /* \"#utility.yul\":12600:12707   */\n      swap3\n      swap2\n      pop\n      pop\n      jump\t// out\n        /* \"#utility.yul\":12713:13106   */\n    tag_129:\n        /* \"#utility.yul\":12782:12788   */\n      0x00\n        /* \"#utility.yul\":12832:12833   */\n      0x08\n        /* \"#utility.yul\":12820:12830   */\n      dup4\n        /* \"#utility.yul\":12816:12834   */\n      mul\n        /* \"#utility.yul\":12855:12952   */\n      tag_281\n        /* \"#utility.yul\":12885:12951   */\n      0xffffffffffffffffffffffffffffffffffffffffffffffffffffffffffffffff\n        /* \"#utility.yul\":12874:12883   */\n      dup3\n        /* \"#utility.yul\":12855:12952   */\n      tag_128\n      jump\t// in\n    tag_281:\n        /* \"#utility.yul\":12973:13012   */\n      tag_282\n        /* \"#utility.yul\":13003:13011   */\n      dup7\n        /* \"#utility.yul\":12992:13001   */\n      dup4\n        /* \"#utility.yul\":12973:13012   */\n      tag_128\n      jump\t// in\n    tag_282:\n        /* \"#utility.yul\":12961:13012   */\n      swap6\n      pop\n        /* \"#utility.yul\":13045:13049   */\n      dup1\n        /* \"#utility.yul\":13041:13050   */\n      not\n        /* \"#utility.yul\":13034:13039   */\n      dup5\n        /* \"#utility.yul\":13030:13051   */\n      and\n        /* \"#utility.yul\":13021:13051   */\n      swap4\n      pop\n        /* \"#utility.yul\":13094:13098   */\n      dup1\n        /* \"#utility.yul\":13084:13092   */\n      dup7\n        /* \"#utility.yul\":13080:13099   */\n      and\n        /* \"#utility.yul\":13073:13078   */\n      dup5\n        /* \"#utility.yul\":13070:13100   */\n      or\n        /* \"#utility.yul\":13060:13100   */\n      swap3\n      pop\n        /* \"#utility.yul\":12789:13106   */\n      pop\n      pop\n        /* \"#utility.yul\":12713:13106   */\n      swap4\n      swap3\n      pop\n      pop\n      pop\n      jump\t// out\n        /* \"#utility.yul\":13112:13172   */\n    tag_130:\n        /* \"#utility.yul\":13140:13143   */\n      0x00\n        /* \"#utility.yul\":13161:13166   */\n      dup2\n        /* \"#utility.yul\":13154:13166   */\n      swap1\n      pop\n        /* \"#utility.yul\":13112:13172   */\n      swap2\n      swap1\n      pop\n      jump\t// out\n        /* \"#utility.yul\":13178:13320   */\n    tag_131:\n        /* \"#utility.yul\":13228:13237   */\n      0x00\n        /* \"#utility.yul\":13261:13314   */\n      tag_285\n        /* \"#utility.yul\":13279:13313   */\n      tag_286\n        /* \"#utility.yul\":13288:13312   */\n      tag_287\n        /* \"#utility.yul\":13306:13311   */\n      dup5\n        /* \"#utility.yul\":13288:13312   */\n      tag_101\n      jump\t// in\n    tag_287:\n        /* \"#utility.yul\":13279:13313   */\n      tag_130\n      jump\t// in\n    tag_286:\n        /* \"#utility.yul\":13261:13314   */\n      tag_101\n      jump\t// in\n    tag_285:\n        /* \"#utility.yul\":13248:13314   */\n      swap1\n      pop\n        /* \"#utility.yul\":13178:13320   */\n      swap2\n      swap1\n      pop\n      jump\t// out\n        /* \"#utility.yul\":13326:13401   */\n    tag_132:\n        /* \"#utility.yul\":13369:13372   */\n      0x00\n        /* \"#utility.yul\":13390:13395   */\n      dup2\n        /* \"#utility.yul\":13383:13395   */\n      swap1\n      pop\n        /* \"#utility.yul\":13326:13401   */\n      swap2\n      swap1\n      pop\n      jump\t// out\n        /* \"#utility.yul\":13407:13676   */\n    tag_133:\n        /* \"#utility.yul\":13517:13556   */\n      tag_290\n        /* \"#utility.yul\":13548:13555   */\n      dup4\n        /* \"#utility.yul\":13517:13556   */\n      tag_131\n      jump\t// in\n    tag_290:\n        /* \"#utility.yul\":13578:13669   */\n      tag_291\n        /* \"#utility.yul\":13627:13668   */\n      tag_292\n        /* \"#utility.yul\":13651:13667   */\n      dup3\n        /* \"#utility.yul\":13627:13668   */\n      tag_132\n      jump\t// in\n    tag_292:\n        /* \"#utility.yul\":13619:13625   */\n      dup5\n        /* \"#utility.yul\":13612:13616   */\n      dup5\n        /* \"#utility.yul\":13606:13617   */\n      sload\n        /* \"#utility.yul\":13578:13669   */\n      tag_129\n      jump\t// in\n    tag_291:\n        /* \"#utility.yul\":13572:13576   */\n      dup3\n        /* \"#utility.yul\":13565:13670   */\n      sstore\n        /* \"#utility.yul\":13483:13676   */\n      pop\n        /* \"#utility.yul\":13407:13676   */\n      pop\n      pop\n      pop\n      jump\t// out\n        /* \"#utility.yul\":13682:13755   */\n    tag_134:\n        /* \"#utility.yul\":13727:13730   */\n      0x00\n        /* \"#utility.yul\":13682:13755   */\n      swap1\n      jump\t// out\n        /* \"#utility.yul\":13761:13950   */\n    tag_135:\n        /* \"#utility.yul\":13838:13870   */\n      tag_295\n      tag_134\n      jump\t// in\n    tag_295:\n        /* \"#utility.yul\":13879:13944   */\n      tag_296\n        /* \"#utility.yul\":13937:13943   */\n      dup2\n        /* \"#utility.yul\":13929:13935   */\n      dup5\n        /* \"#utility.yul\":13923:13927   */\n      dup5\n        /* \"#utility.yul\":13879:13944   */\n      tag_133\n      jump\t// in\n    tag_296:\n        /* \"#utility.yul\":13814:13950   */\n      pop\n        /* \"#utility.yul\":13761:13950   */\n      pop\n      pop\n      jump\t// out\n        /* \"#utility.yul\":13956:14142   */\n    tag_136:\n        /* \"#utility.yul\":14016:14136   */\n    tag_298:\n        /* \"#utility.yul\":14033:14036   */\n      dup2\n        /* \"#utility.yul\":14026:14031   */\n      dup2\n        /* \"#utility.yul\":14023:14037   */\n      lt\n        /* \"#utility.yul\":14016:14136   */\n      iszero\n      tag_300\n      jumpi\n        /* \"#utility.yul\":14087:14126   */\n      tag_301\n        /* \"#utility.yul\":14124:14125   */\n      0x00\n        /* \"#utility.yul\":14117:14122   */\n      dup3\n        /* \"#utility.yul\":14087:14126   */\n      tag_135\n      jump\t// in\n    tag_301:\n        /* \"#utility.yul\":14060:14061   */\n      0x01\n        /* \"#utility.yul\":14053:14058   */\n      dup2\n        /* \"#utility.yul\":14049:14062   */\n      add\n        /* \"#utility.yul\":14040:14062   */\n      swap1\n      pop\n        /* \"#utility.yul\":14016:14136   */\n      jump(tag_298)\n    tag_300:\n        /* \"#utility.yul\":13956:14142   */\n      pop\n      pop\n      jump\t// out\n        /* \"#utility.yul\":14148:14691   */\n    tag_137:\n        /* \"#utility.yul\":14249:14251   */\n      0x1f\n        /* \"#utility.yul\":14244:14247   */\n      dup3\n        /* \"#utility.yul\":14241:14252   */\n      gt\n        /* \"#utility.yul\":14238:14684   */\n      iszero\n      tag_303\n      jumpi\n        /* \"#utility.yul\":14283:14321   */\n      tag_304\n        /* \"#utility.yul\":14315:14320   */\n      dup2\n        /* \"#utility.yul\":14283:14321   */\n      tag_126\n      jump\t// in\n    tag_304:\n        /* \"#utility.yul\":14367:14396   */\n      tag_305\n        /* \"#utility.yul\":14385:14395   */\n      dup5\n        /* \"#utility.yul\":14367:14396   */\n      tag_127\n      jump\t// in\n    tag_305:\n        /* \"#utility.yul\":14357:14365   */\n      dup2\n        /* \"#utility.yul\":14353:14397   */\n      add\n        /* \"#utility.yul\":14550:14552   */\n      0x20\n        /* \"#utility.yul\":14538:14548   */\n      dup6\n        /* \"#utility.yul\":14535:14553   */\n      lt\n        /* \"#utility.yul\":14532:14581   */\n      iszero\n      tag_306\n      jumpi\n        /* \"#utility.yul\":14571:14579   */\n      dup2\n        /* \"#utility.yul\":14556:14579   */\n      swap1\n      pop\n        /* \"#utility.yul\":14532:14581   */\n    tag_306:\n        /* \"#utility.yul\":14594:14674   */\n      tag_307\n        /* \"#utility.yul\":14650:14672   */\n      tag_308\n        /* \"#utility.yul\":14668:14671   */\n      dup6\n        /* \"#utility.yul\":14650:14672   */\n      tag_127\n      jump\t// in\n    tag_308:\n        /* \"#utility.yul\":14640:14648   */\n      dup4\n        /* \"#utility.yul\":14636:14673   */\n      add\n        /* \"#utility.yul\":14623:14634   */\n      dup3\n        /* \"#utility.yul\":14594:14674   */\n      tag_136\n      jump\t// in\n    tag_307:\n        /* \"#utility.yul\":14253:14684   */\n      pop\n      pop\n        /* \"#utility.yul\":14238:14684   */\n    tag_303:\n        /* \"#utility.yul\":14148:14691   */\n      pop\n      pop\n      pop\n      jump\t// out\n        /* \"#utility.yul\":14697:14814   */\n    tag_138:\n        /* \"#utility.yul\":14751:14759   */\n      0x00\n        /* \"#utility.yul\":14801:14806   */\n      dup3\n        /* \"#utility.yul\":14795:14799   */\n      dup3\n        /* \"#utility.yul\":14791:14807   */\n      shr\n        /* \"#utility.yul\":14770:14807   */\n      swap1\n      pop\n        /* \"#utility.yul\":14697:14814   */\n      swap3\n      swap2\n      pop\n      pop\n      jump\t// out\n        /* \"#utility.yul\":14820:14989   */\n    tag_139:\n        /* \"#utility.yul\":14864:14870   */\n      0x00\n        /* \"#utility.yul\":14897:14948   */\n      tag_311\n        /* \"#utility.yul\":14945:14946   */\n      0x00\n        /* \"#utility.yul\":14941:14947   */\n      not\n        /* \"#utility.yul\":14933:14938   */\n      dup5\n        /* \"#utility.yul\":14930:14931   */\n      0x08\n        /* \"#utility.yul\":14926:14939   */\n      mul\n        /* \"#utility.yul\":14897:14948   */\n      tag_138\n      jump\t// in\n    tag_311:\n        /* \"#utility.yul\":14893:14949   */\n      not\n        /* \"#utility.yul\":14978:14982   */\n      dup1\n        /* \"#utility.yul\":14972:14976   */\n      dup4\n        /* \"#utility.yul\":14968:14983   */\n      and\n        /* \"#utility.yul\":14958:14983   */\n      swap2\n      pop\n        /* \"#utility.yul\":14871:14989   */\n      pop\n        /* \"#utility.yul\":14820:14989   */\n      swap3\n      swap2\n      pop\n      pop\n      jump\t// out\n        /* \"#utility.yul\":14994:15289   */\n    tag_140:\n        /* \"#utility.yul\":15070:15074   */\n      0x00\n        /* \"#utility.yul\":15216:15245   */\n      tag_313\n        /* \"#utility.yul\":15241:15244   */\n      dup4\n        /* \"#utility.yul\":15235:15239   */\n      dup4\n        /* \"#utility.yul\":15216:15245   */\n      tag_139\n      jump\t// in\n    tag_313:\n        /* \"#utility.yul\":15208:15245   */\n      swap2\n      pop\n        /* \"#utility.yul\":15278:15281   */\n      dup3\n        /* \"#utility.yul\":15275:15276   */\n      0x02\n        /* \"#utility.yul\":15271:15282   */\n      mul\n        /* \"#utility.yul\":15265:15269   */\n      dup3\n        /* \"#utility.yul\":15262:15283   */\n      or\n        /* \"#utility.yul\":15254:15283   */\n      swap1\n      pop\n        /* \"#utility.yul\":14994:15289   */\n      swap3\n      swap2\n      pop\n      pop\n      jump\t// out\n        /* \"#utility.yul\":15294:16689   */\n    tag_39:\n        /* \"#utility.yul\":15411:15448   */\n      tag_315\n        /* \"#utility.yul\":15444:15447   */\n      dup3\n        /* \"#utility.yul\":15411:15448   */\n      tag_109\n      jump\t// in\n    tag_315:\n        /* \"#utility.yul\":15513:15531   */\n      0xffffffffffffffff\n        /* \"#utility.yul\":15505:15511   */\n      dup2\n        /* \"#utility.yul\":15502:15532   */\n      gt\n        /* \"#utility.yul\":15499:15555   */\n      iszero\n      tag_316\n      jumpi\n        /* \"#utility.yul\":15535:15553   */\n      tag_317\n      tag_94\n      jump\t// in\n    tag_317:\n        /* \"#utility.yul\":15499:15555   */\n    tag_316:\n        /* \"#utility.yul\":15579:15617   */\n      tag_318\n        /* \"#utility.yul\":15611:15615   */\n      dup3\n        /* \"#utility.yul\":15605:15616   */\n      sload\n        /* \"#utility.yul\":15579:15617   */\n      tag_43\n      jump\t// in\n    tag_318:\n        /* \"#utility.yul\":15664:15731   */\n      tag_319\n        /* \"#utility.yul\":15724:15730   */\n      dup3\n        /* \"#utility.yul\":15716:15722   */\n      dup3\n        /* \"#utility.yul\":15710:15714   */\n      dup6\n        /* \"#utility.yul\":15664:15731   */\n      tag_137\n      jump\t// in\n    tag_319:\n        /* \"#utility.yul\":15758:15759   */\n      0x00\n        /* \"#utility.yul\":15782:15786   */\n      0x20\n        /* \"#utility.yul\":15769:15786   */\n      swap1\n      pop\n        /* \"#utility.yul\":15814:15816   */\n      0x1f\n        /* \"#utility.yul\":15806:15812   */\n      dup4\n        /* \"#utility.yul\":15803:15817   */\n      gt\n        /* \"#utility.yul\":15831:15832   */\n      0x01\n        /* \"#utility.yul\":15826:16444   */\n      dup2\n      eq\n      tag_321\n      jumpi\n        /* \"#utility.yul\":16488:16489   */\n      0x00\n        /* \"#utility.yul\":16505:16511   */\n      dup5\n        /* \"#utility.yul\":16502:16579   */\n      iszero\n      tag_322\n      jumpi\n        /* \"#utility.yul\":16554:16563   */\n      dup3\n        /* \"#utility.yul\":16549:16552   */\n      dup8\n        /* \"#utility.yul\":16545:16564   */\n      add\n        /* \"#utility.yul\":16539:16565   */\n      mload\n        /* \"#utility.yul\":16530:16565   */\n      swap1\n      pop\n        /* \"#utility.yul\":16502:16579   */\n    tag_322:\n        /* \"#utility.yul\":16605:16672   */\n      tag_323\n        /* \"#utility.yul\":16665:16671   */\n      dup6\n        /* \"#utility.yul\":16658:16663   */\n      dup3\n        /* \"#utility.yul\":16605:16672   */\n      tag_140\n      jump\t// in\n    tag_323:\n        /* \"#utility.yul\":16599:16603   */\n      dup7\n        /* \"#utility.yul\":16592:16673   */\n      sstore\n        /* \"#utility.yul\":16461:16683   */\n      pop\n        /* \"#utility.yul\":15796:16683   */\n      jump(tag_320)\n        /* \"#utility.yul\":15826:16444   */\n    tag_321:\n        /* \"#utility.yul\":15878:15882   */\n      0x1f\n        /* \"#utility.yul\":15874:15883   */\n      not\n        /* \"#utility.yul\":15866:15872   */\n      dup5\n        /* \"#utility.yul\":15862:15884   */\n      and\n        /* \"#utility.yul\":15912:15949   */\n      tag_324\n        /* \"#utility.yul\":15944:15948   */\n      dup7\n        /* \"#utility.yul\":15912:15949   */\n      tag_126\n      jump\t// in\n    tag_324:\n        /* \"#utility.yul\":15971:15972   */\n      0x00\n        /* \"#utility.yul\":15985:16193   */\n    tag_325:\n        /* \"#utility.yul\":15999:16006   */\n      dup3\n        /* \"#utility.yul\":15996:15997   */\n      dup2\n        /* \"#utility.yul\":15993:16007   */\n      lt\n        /* \"#utility.yul\":15985:16193   */\n      iszero\n      tag_327\n      jumpi\n        /* \"#utility.yul\":16078:16087   */\n      dup5\n        /* \"#utility.yul\":16073:16076   */\n      dup10\n        /* \"#utility.yul\":16069:16088   */\n      add\n        /* \"#utility.yul\":16063:16089   */\n      mload\n        /* \"#utility.yul\":16055:16061   */\n      dup3\n        /* \"#utility.yul\":16048:16090   */\n      sstore\n        /* \"#utility.yul\":16129:16130   */\n      0x01\n        /* \"#utility.yul\":16121:16127   */\n      dup3\n        /* \"#utility.yul\":16117:16131   */\n      add\n        /* \"#utility.yul\":16107:16131   */\n      swap2\n      pop\n        /* \"#utility.yul\":16176:16178   */\n      0x20\n        /* \"#utility.yul\":16165:16174   */\n      dup6\n        /* \"#utility.yul\":16161:16179   */\n      add\n        /* \"#utility.yul\":16148:16179   */\n      swap5\n      pop\n        /* \"#utility.yul\":16022:16026   */\n      0x20\n        /* \"#utility.yul\":16019:16020   */\n      dup2\n        /* \"#utility.yul\":16015:16027   */\n      add\n        /* \"#utility.yul\":16010:16027   */\n      swap1\n      pop\n        /* \"#utility.yul\":15985:16193   */\n      jump(tag_325)\n    tag_327:\n        /* \"#utility.yul\":16221:16227   */\n      dup7\n        /* \"#utility.yul\":16212:16219   */\n      dup4\n        /* \"#utility.yul\":16209:16228   */\n      lt\n        /* \"#utility.yul\":16206:16385   */\n      iszero\n      tag_328\n      jumpi\n        /* \"#utility.yul\":16279:16288   */\n      dup5\n        /* \"#utility.yul\":16274:16277   */\n      dup10\n        /* \"#utility.yul\":16270:16289   */\n      add\n        /* \"#utility.yul\":16264:16290   */\n      mload\n        /* \"#utility.yul\":16322:16370   */\n      tag_329\n        /* \"#utility.yul\":16364:16368   */\n      0x1f\n        /* \"#utility.yul\":16356:16362   */\n      dup10\n        /* \"#utility.yul\":16352:16369   */\n      and\n        /* \"#utility.yul\":16341:16350   */\n      dup3\n        /* \"#utility.yul\":16322:16370   */\n      tag_139\n      jump\t// in\n    tag_329:\n        /* \"#utility.yul\":16314:16320   */\n      dup4\n        /* \"#utility.yul\":16307:16371   */\n      sstore\n        /* \"#utility.yul\":16229:16385   */\n      pop\n        /* \"#utility.yul\":16206:16385   */\n    tag_328:\n        /* \"#utility.yul\":16431:16432   */\n      0x01\n        /* \"#utility.yul\":16427:16428   */\n      0x02\n        /* \"#utility.yul\":16419:16425   */\n      dup9\n        /* \"#utility.yul\":16415:16429   */\n      mul\n        /* \"#utility.yul\":16411:16433   */\n      add\n        /* \"#utility.yul\":16405:16409   */\n      dup9\n        /* \"#utility.yul\":16398:16434   */\n      sstore\n        /* \"#utility.yul\":15833:16444   */\n      pop\n      pop\n      pop\n        /* \"#utility.yul\":15796:16683   */\n    tag_320:\n      pop\n        /* \"#utility.yul\":15386:16689   */\n      pop\n      pop\n      pop\n        /* \"#utility.yul\":15294:16689   */\n      pop\n      pop\n      jump\t// out\n        /* \"#utility.yul\":16695:16926   */\n    tag_141:\n        /* \"#utility.yul\":16835:16869   */\n      0x556e646572207265717569726564206d61726b2c206170706c69636174696f6e\n        /* \"#utility.yul\":16831:16832   */\n      0x00\n        /* \"#utility.yul\":16823:16829   */\n      dup3\n        /* \"#utility.yul\":16819:16833   */\n      add\n        /* \"#utility.yul\":16812:16870   */\n      mstore\n        /* \"#utility.yul\":16904:16918   */\n      0x2069732072656a65637465640000000000000000000000000000000000000000\n        /* \"#utility.yul\":16899:16901   */\n      0x20\n        /* \"#utility.yul\":16891:16897   */\n      dup3\n        /* \"#utility.yul\":16887:16902   */\n      add\n        /* \"#utility.yul\":16880:16919   */\n      mstore\n        /* \"#utility.yul\":16695:16926   */\n      pop\n      jump\t// out\n        /* \"#utility.yul\":16932:17298   */\n    tag_142:\n        /* \"#utility.yul\":17074:17077   */\n      0x00\n        /* \"#utility.yul\":17095:17162   */\n      tag_332\n        /* \"#utility.yul\":17159:17161   */\n      0x2c\n        /* \"#utility.yul\":17154:17157   */\n      dup4\n        /* \"#utility.yul\":17095:17162   */\n      tag_110\n      jump\t// in\n    tag_332:\n        /* \"#utility.yul\":17088:17162   */\n      swap2\n      pop\n        /* \"#utility.yul\":17171:17264   */\n      tag_333\n        /* \"#utility.yul\":17260:17263   */\n      dup3\n        /* \"#utility.yul\":17171:17264   */\n      tag_141\n      jump\t// in\n    tag_333:\n        /* \"#utility.yul\":17289:17291   */\n      0x40\n        /* \"#utility.yul\":17284:17287   */\n      dup3\n        /* \"#utility.yul\":17280:17292   */\n      add\n        /* \"#utility.yul\":17273:17292   */\n      swap1\n      pop\n        /* \"#utility.yul\":16932:17298   */\n      swap2\n      swap1\n      pop\n      jump\t// out\n        /* \"#utility.yul\":17304:17723   */\n    tag_51:\n        /* \"#utility.yul\":17470:17474   */\n      0x00\n        /* \"#utility.yul\":17508:17510   */\n      0x20\n        /* \"#utility.yul\":17497:17506   */\n      dup3\n        /* \"#utility.yul\":17493:17511   */\n      add\n        /* \"#utility.yul\":17485:17511   */\n      swap1\n      pop\n        /* \"#utility.yul\":17557:17566   */\n      dup2\n        /* \"#utility.yul\":17551:17555   */\n      dup2\n        /* \"#utility.yul\":17547:17567   */\n      sub\n        /* \"#utility.yul\":17543:17544   */\n      0x00\n        /* \"#utility.yul\":17532:17541   */\n      dup4\n        /* \"#utility.yul\":17528:17545   */\n      add\n        /* \"#utility.yul\":17521:17568   */\n      mstore\n        /* \"#utility.yul\":17585:17716   */\n      tag_335\n        /* \"#utility.yul\":17711:17715   */\n      dup2\n        /* \"#utility.yul\":17585:17716   */\n      tag_142\n      jump\t// in\n    tag_335:\n        /* \"#utility.yul\":17577:17716   */\n      swap1\n      pop\n        /* \"#utility.yul\":17304:17723   */\n      swap2\n      swap1\n      pop\n      jump\t// out\n        /* \"#utility.yul\":17729:17975   */\n    tag_143:\n        /* \"#utility.yul\":17869:17903   */\n      0x4e6f206578697374696e6720736561742073746174757320746f207570646174\n        /* \"#utility.yul\":17865:17866   */\n      0x00\n        /* \"#utility.yul\":17857:17863   */\n      dup3\n        /* \"#utility.yul\":17853:17867   */\n      add\n        /* \"#utility.yul\":17846:17904   */\n      mstore\n        /* \"#utility.yul\":17938:17967   */\n      0x652c20666972737420616c6c6f636174652061206e6577206f6e650000000000\n        /* \"#utility.yul\":17933:17935   */\n      0x20\n        /* \"#utility.yul\":17925:17931   */\n      dup3\n        /* \"#utility.yul\":17921:17936   */\n      add\n        /* \"#utility.yul\":17914:17968   */\n      mstore\n        /* \"#utility.yul\":17729:17975   */\n      pop\n      jump\t// out\n        /* \"#utility.yul\":17981:18347   */\n    tag_144:\n        /* \"#utility.yul\":18123:18126   */\n      0x00\n        /* \"#utility.yul\":18144:18211   */\n      tag_338\n        /* \"#utility.yul\":18208:18210   */\n      0x3b\n        /* \"#utility.yul\":18203:18206   */\n      dup4\n        /* \"#utility.yul\":18144:18211   */\n      tag_110\n      jump\t// in\n    tag_338:\n        /* \"#utility.yul\":18137:18211   */\n      swap2\n      pop\n        /* \"#utility.yul\":18220:18313   */\n      tag_339\n        /* \"#utility.yul\":18309:18312   */\n      dup3\n        /* \"#utility.yul\":18220:18313   */\n      tag_143\n      jump\t// in\n    tag_339:\n        /* \"#utility.yul\":18338:18340   */\n      0x40\n        /* \"#utility.yul\":18333:18336   */\n      dup3\n        /* \"#utility.yul\":18329:18341   */\n      add\n        /* \"#utility.yul\":18322:18341   */\n      swap1\n      pop\n        /* \"#utility.yul\":17981:18347   */\n      swap2\n      swap1\n      pop\n      jump\t// out\n        /* \"#utility.yul\":18353:18772   */\n    tag_55:\n        /* \"#utility.yul\":18519:18523   */\n      0x00\n        /* \"#utility.yul\":18557:18559   */\n      0x20\n        /* \"#utility.yul\":18546:18555   */\n      dup3\n        /* \"#utility.yul\":18542:18560   */\n      add\n        /* \"#utility.yul\":18534:18560   */\n      swap1\n      pop\n        /* \"#utility.yul\":18606:18615   */\n      dup2\n        /* \"#utility.yul\":18600:18604   */\n      dup2\n        /* \"#utility.yul\":18596:18616   */\n      sub\n        /* \"#utility.yul\":18592:18593   */\n      0x00\n        /* \"#utility.yul\":18581:18590   */\n      dup4\n        /* \"#utility.yul\":18577:18594   */\n      add\n        /* \"#utility.yul\":18570:18617   */\n      mstore\n        /* \"#utility.yul\":18634:18765   */\n      tag_341\n        /* \"#utility.yul\":18760:18764   */\n      dup2\n        /* \"#utility.yul\":18634:18765   */\n      tag_144\n      jump\t// in\n    tag_341:\n        /* \"#utility.yul\":18626:18765   */\n      swap1\n      pop\n        /* \"#utility.yul\":18353:18772   */\n      swap2\n      swap1\n      pop\n      jump\t// out\n        /* \"#utility.yul\":18778:18958   */\n    tag_67:\n        /* \"#utility.yul\":18826:18903   */\n      0x4e487b7100000000000000000000000000000000000000000000000000000000\n        /* \"#utility.yul\":18823:18824   */\n      0x00\n        /* \"#utility.yul\":18816:18904   */\n      mstore\n        /* \"#utility.yul\":18923:18927   */\n      0x01\n        /* \"#utility.yul\":18920:18921   */\n      0x04\n        /* \"#utility.yul\":18913:18928   */\n      mstore\n        /* \"#utility.yul\":18947:18951   */\n      0x24\n        /* \"#utility.yul\":18944:18945   */\n      0x00\n        /* \"#utility.yul\":18937:18952   */\n      revert\n\n    auxdata: 0xa2646970667358221220c797e39b5b3b67caf95f5792066adc520a09d09144a9c1d0a9659c7e870b0edd64736f6c63430008190033\n}\n",
				"bytecode": {
					"linkReferences": {},
					"object": "6080604052348015600e575f80fd5b5061126d8061001c5f395ff3fe608060405234801561000f575f80fd5b5060043610610055575f3560e01c80631db791a314610059578063a6c807a914610075578063ac512912146100a9578063cd2632d3146100d9578063fc478a2214610109575b5f80fd5b610073600480360381019061006e9190610a78565b61013a565b005b61008f600480360381019061008a9190610b1d565b610233565b6040516100a0959493929190610c39565b60405180910390f35b6100c360048036038101906100be9190610b1d565b610303565b6040516100d09190610c91565b60405180910390f35b6100f360048036038101906100ee9190610b1d565b6103e7565b6040516101009190610caa565b60405180910390f35b610123600480360381019061011e9190610cca565b6105aa565b604051610131929190610df0565b60405180910390f35b6040518060a0016040528086815260200185815260200184815260200183600381111561016a57610169610bb7565b5b81526020018215158152505f808873ffffffffffffffffffffffffffffffffffffffff1673ffffffffffffffffffffffffffffffffffffffff1681526020019081526020015f205f820151815f0190816101c4919061101f565b5060208201518160010155604082015181600201556060820151816003015f6101000a81548160ff0219169083600381111561020357610202610bb7565b5b021790555060808201518160030160016101000a81548160ff021916908315150217905550905050505050505050565b5f602052805f5260405f205f91509050805f01805461025190610e52565b80601f016020809104026020016040519081016040528092919081815260200182805461027d90610e52565b80156102c85780601f1061029f576101008083540402835291602001916102c8565b820191905f5260205f20905b8154815290600101906020018083116102ab57829003601f168201915b505050505090806001015490806002015490806003015f9054906101000a900460ff16908060030160019054906101000a900460ff16905085565b5f604b5f808473ffffffffffffffffffffffffffffffffffffffff1673ffffffffffffffffffffffffffffffffffffffff1681526020019081526020015f206001015411610386576040517f08c379a000000000000000000000000000000000000000000000000000000000815260040161037d9061115e565b60405180910390fd5b60015f808473ffffffffffffffffffffffffffffffffffffffff1673ffffffffffffffffffffffffffffffffffffffff1681526020019081526020015f2060030160016101000a81548160ff02191690831515021790555060019050919050565b60605f808373ffffffffffffffffffffffffffffffffffffffff1673ffffffffffffffffffffffffffffffffffffffff1681526020019081526020015f2060030160019054906101000a900460ff16610475576040517f08c379a000000000000000000000000000000000000000000000000000000000815260040161046c906111ec565b60405180910390fd5b5f600381111561048857610487610bb7565b5b5f808473ffffffffffffffffffffffffffffffffffffffff1673ffffffffffffffffffffffffffffffffffffffff1681526020019081526020015f206003015f9054906101000a900460ff1660038111156104e6576104e5610bb7565b5b14806105605750600380811115610500576104ff610bb7565b5b5f808473ffffffffffffffffffffffffffffffffffffffff1673ffffffffffffffffffffffffffffffffffffffff1681526020019081526020015f206003015f9054906101000a900460ff16600381111561055e5761055d610bb7565b5b145b61056d5761056c61120a565b5b6040518060400160405280601a81526020017f5365617420616c6c6f636174696f6e207375636365737366756c0000000000008152509050919050565b6105b2610807565b60605f808573ffffffffffffffffffffffffffffffffffffffff1673ffffffffffffffffffffffffffffffffffffffff1681526020019081526020015f2060030160019054906101000a900460ff16610640576040517f08c379a0000000000000000000000000000000000000000000000000000000008152600401610637906111ec565b60405180910390fd5b825f808673ffffffffffffffffffffffffffffffffffffffff1673ffffffffffffffffffffffffffffffffffffffff1681526020019081526020015f20600201819055505f808573ffffffffffffffffffffffffffffffffffffffff1673ffffffffffffffffffffffffffffffffffffffff1681526020019081526020015f20806040518060a00160405290815f820180546106db90610e52565b80601f016020809104026020016040519081016040528092919081815260200182805461070790610e52565b80156107525780601f1061072957610100808354040283529160200191610752565b820191905f5260205f20905b81548152906001019060200180831161073557829003601f168201915b505050505081526020016001820154815260200160028201548152602001600382015f9054906101000a900460ff16600381111561079357610792610bb7565b5b60038111156107a5576107a4610bb7565b5b81526020016003820160019054906101000a900460ff16151515158152505090506040518060400160405280600e81526020017f5374617475732075706461746564000000000000000000000000000000000000815250915091509250929050565b6040518060a00160405280606081526020015f81526020015f81526020015f600381111561083857610837610bb7565b5b81526020015f151581525090565b5f604051905090565b5f80fd5b5f80fd5b5f73ffffffffffffffffffffffffffffffffffffffff82169050919050565b5f61088082610857565b9050919050565b61089081610876565b811461089a575f80fd5b50565b5f813590506108ab81610887565b92915050565b5f80fd5b5f80fd5b5f601f19601f8301169050919050565b7f4e487b71000000000000000000000000000000000000000000000000000000005f52604160045260245ffd5b6108ff826108b9565b810181811067ffffffffffffffff8211171561091e5761091d6108c9565b5b80604052505050565b5f610930610846565b905061093c82826108f6565b919050565b5f67ffffffffffffffff82111561095b5761095a6108c9565b5b610964826108b9565b9050602081019050919050565b828183375f83830152505050565b5f61099161098c84610941565b610927565b9050828152602081018484840111156109ad576109ac6108b5565b5b6109b8848285610971565b509392505050565b5f82601f8301126109d4576109d36108b1565b5b81356109e484826020860161097f565b91505092915050565b5f819050919050565b6109ff816109ed565b8114610a09575f80fd5b50565b5f81359050610a1a816109f6565b92915050565b60048110610a2c575f80fd5b50565b5f81359050610a3d81610a20565b92915050565b5f8115159050919050565b610a5781610a43565b8114610a61575f80fd5b50565b5f81359050610a7281610a4e565b92915050565b5f805f805f8060c08789031215610a9257610a9161084f565b5b5f610a9f89828a0161089d565b965050602087013567ffffffffffffffff811115610ac057610abf610853565b5b610acc89828a016109c0565b9550506040610add89828a01610a0c565b9450506060610aee89828a01610a0c565b9350506080610aff89828a01610a2f565b92505060a0610b1089828a01610a64565b9150509295509295509295565b5f60208284031215610b3257610b3161084f565b5b5f610b3f8482850161089d565b91505092915050565b5f81519050919050565b5f82825260208201905092915050565b8281835e5f83830152505050565b5f610b7a82610b48565b610b848185610b52565b9350610b94818560208601610b62565b610b9d816108b9565b840191505092915050565b610bb1816109ed565b82525050565b7f4e487b71000000000000000000000000000000000000000000000000000000005f52602160045260245ffd5b60048110610bf557610bf4610bb7565b5b50565b5f819050610c0582610be4565b919050565b5f610c1482610bf8565b9050919050565b610c2481610c0a565b82525050565b610c3381610a43565b82525050565b5f60a0820190508181035f830152610c518188610b70565b9050610c606020830187610ba8565b610c6d6040830186610ba8565b610c7a6060830185610c1b565b610c876080830184610c2a565b9695505050505050565b5f602082019050610ca45f830184610c2a565b92915050565b5f6020820190508181035f830152610cc28184610b70565b905092915050565b5f8060408385031215610ce057610cdf61084f565b5b5f610ced8582860161089d565b9250506020610cfe85828601610a0c565b9150509250929050565b5f82825260208201905092915050565b5f610d2282610b48565b610d2c8185610d08565b9350610d3c818560208601610b62565b610d45816108b9565b840191505092915050565b610d59816109ed565b82525050565b610d6881610c0a565b82525050565b610d7781610a43565b82525050565b5f60a083015f8301518482035f860152610d978282610d18565b9150506020830151610dac6020860182610d50565b506040830151610dbf6040860182610d50565b506060830151610dd26060860182610d5f565b506080830151610de56080860182610d6e565b508091505092915050565b5f6040820190508181035f830152610e088185610d7d565b90508181036020830152610e1c8184610b70565b90509392505050565b7f4e487b71000000000000000000000000000000000000000000000000000000005f52602260045260245ffd5b5f6002820490506001821680610e6957607f821691505b602082108103610e7c57610e7b610e25565b5b50919050565b5f819050815f5260205f209050919050565b5f6020601f8301049050919050565b5f82821b905092915050565b5f60088302610ede7fffffffffffffffffffffffffffffffffffffffffffffffffffffffffffffffff82610ea3565b610ee88683610ea3565b95508019841693508086168417925050509392505050565b5f819050919050565b5f610f23610f1e610f19846109ed565b610f00565b6109ed565b9050919050565b5f819050919050565b610f3c83610f09565b610f50610f4882610f2a565b848454610eaf565b825550505050565b5f90565b610f64610f58565b610f6f818484610f33565b505050565b5b81811015610f9257610f875f82610f5c565b600181019050610f75565b5050565b601f821115610fd757610fa881610e82565b610fb184610e94565b81016020851015610fc0578190505b610fd4610fcc85610e94565b830182610f74565b50505b505050565b5f82821c905092915050565b5f610ff75f1984600802610fdc565b1980831691505092915050565b5f61100f8383610fe8565b9150826002028217905092915050565b61102882610b48565b67ffffffffffffffff811115611041576110406108c9565b5b61104b8254610e52565b611056828285610f96565b5f60209050601f831160018114611087575f8415611075578287015190505b61107f8582611004565b8655506110e6565b601f19841661109586610e82565b5f5b828110156110bc57848901518255600182019150602085019450602081019050611097565b868310156110d957848901516110d5601f891682610fe8565b8355505b6001600288020188555050505b505050505050565b7f556e646572207265717569726564206d61726b2c206170706c69636174696f6e5f8201527f2069732072656a65637465640000000000000000000000000000000000000000602082015250565b5f611148602c83610b52565b9150611153826110ee565b604082019050919050565b5f6020820190508181035f8301526111758161113c565b9050919050565b7f4e6f206578697374696e6720736561742073746174757320746f2075706461745f8201527f652c20666972737420616c6c6f636174652061206e6577206f6e650000000000602082015250565b5f6111d6603b83610b52565b91506111e18261117c565b604082019050919050565b5f6020820190508181035f830152611203816111ca565b9050919050565b7f4e487b71000000000000000000000000000000000000000000000000000000005f52600160045260245ffdfea2646970667358221220c797e39b5b3b67caf95f5792066adc520a09d09144a9c1d0a9659c7e870b0edd64736f6c63430008190033",
					"opcodes": "PUSH1 0x80 PUSH1 0x40 MSTORE CALLVALUE DUP1 ISZERO PUSH1 0xE JUMPI PUSH0 DUP1 REVERT JUMPDEST POP PUSH2 0x126D DUP1 PUSH2 0x1C PUSH0 CODECOPY PUSH0 RETURN INVALID PUSH1 0x80 PUSH1 0x40 MSTORE CALLVALUE DUP1 ISZERO PUSH2 0xF JUMPI PUSH0 DUP1 REVERT JUMPDEST POP PUSH1 0x4 CALLDATASIZE LT PUSH2 0x55 JUMPI PUSH0 CALLDATALOAD PUSH1 0xE0 SHR DUP1 PUSH4 0x1DB791A3 EQ PUSH2 0x59 JUMPI DUP1 PUSH4 0xA6C807A9 EQ PUSH2 0x75 JUMPI DUP1 PUSH4 0xAC512912 EQ PUSH2 0xA9 JUMPI DUP1 PUSH4 0xCD2632D3 EQ PUSH2 0xD9 JUMPI DUP1 PUSH4 0xFC478A22 EQ PUSH2 0x109 JUMPI JUMPDEST PUSH0 DUP1 REVERT JUMPDEST PUSH2 0x73 PUSH1 0x4 DUP1 CALLDATASIZE SUB DUP2 ADD SWAP1 PUSH2 0x6E SWAP2 SWAP1 PUSH2 0xA78 JUMP JUMPDEST PUSH2 0x13A JUMP JUMPDEST STOP JUMPDEST PUSH2 0x8F PUSH1 0x4 DUP1 CALLDATASIZE SUB DUP2 ADD SWAP1 PUSH2 0x8A SWAP2 SWAP1 PUSH2 0xB1D JUMP JUMPDEST PUSH2 0x233 JUMP JUMPDEST PUSH1 0x40 MLOAD PUSH2 0xA0 SWAP6 SWAP5 SWAP4 SWAP3 SWAP2 SWAP1 PUSH2 0xC39 JUMP JUMPDEST PUSH1 0x40 MLOAD DUP1 SWAP2 SUB SWAP1 RETURN JUMPDEST PUSH2 0xC3 PUSH1 0x4 DUP1 CALLDATASIZE SUB DUP2 ADD SWAP1 PUSH2 0xBE SWAP2 SWAP1 PUSH2 0xB1D JUMP JUMPDEST PUSH2 0x303 JUMP JUMPDEST PUSH1 0x40 MLOAD PUSH2 0xD0 SWAP2 SWAP1 PUSH2 0xC91 JUMP JUMPDEST PUSH1 0x40 MLOAD DUP1 SWAP2 SUB SWAP1 RETURN JUMPDEST PUSH2 0xF3 PUSH1 0x4 DUP1 CALLDATASIZE SUB DUP2 ADD SWAP1 PUSH2 0xEE SWAP2 SWAP1 PUSH2 0xB1D JUMP JUMPDEST PUSH2 0x3E7 JUMP JUMPDEST PUSH1 0x40 MLOAD PUSH2 0x100 SWAP2 SWAP1 PUSH2 0xCAA JUMP JUMPDEST PUSH1 0x40 MLOAD DUP1 SWAP2 SUB SWAP1 RETURN JUMPDEST PUSH2 0x123 PUSH1 0x4 DUP1 CALLDATASIZE SUB DUP2 ADD SWAP1 PUSH2 0x11E SWAP2 SWAP1 PUSH2 0xCCA JUMP JUMPDEST PUSH2 0x5AA JUMP JUMPDEST PUSH1 0x40 MLOAD PUSH2 0x131 SWAP3 SWAP2 SWAP1 PUSH2 0xDF0 JUMP JUMPDEST PUSH1 0x40 MLOAD DUP1 SWAP2 SUB SWAP1 RETURN JUMPDEST PUSH1 0x40 MLOAD DUP1 PUSH1 0xA0 ADD PUSH1 0x40 MSTORE DUP1 DUP7 DUP2 MSTORE PUSH1 0x20 ADD DUP6 DUP2 MSTORE PUSH1 0x20 ADD DUP5 DUP2 MSTORE PUSH1 0x20 ADD DUP4 PUSH1 0x3 DUP2 GT ISZERO PUSH2 0x16A JUMPI PUSH2 0x169 PUSH2 0xBB7 JUMP JUMPDEST JUMPDEST DUP2 MSTORE PUSH1 0x20 ADD DUP3 ISZERO ISZERO DUP2 MSTORE POP PUSH0 DUP1 DUP9 PUSH20 0xFFFFFFFFFFFFFFFFFFFFFFFFFFFFFFFFFFFFFFFF AND PUSH20 0xFFFFFFFFFFFFFFFFFFFFFFFFFFFFFFFFFFFFFFFF AND DUP2 MSTORE PUSH1 0x20 ADD SWAP1 DUP2 MSTORE PUSH1 0x20 ADD PUSH0 KECCAK256 PUSH0 DUP3 ADD MLOAD DUP2 PUSH0 ADD SWAP1 DUP2 PUSH2 0x1C4 SWAP2 SWAP1 PUSH2 0x101F JUMP JUMPDEST POP PUSH1 0x20 DUP3 ADD MLOAD DUP2 PUSH1 0x1 ADD SSTORE PUSH1 0x40 DUP3 ADD MLOAD DUP2 PUSH1 0x2 ADD SSTORE PUSH1 0x60 DUP3 ADD MLOAD DUP2 PUSH1 0x3 ADD PUSH0 PUSH2 0x100 EXP DUP2 SLOAD DUP2 PUSH1 0xFF MUL NOT AND SWAP1 DUP4 PUSH1 0x3 DUP2 GT ISZERO PUSH2 0x203 JUMPI PUSH2 0x202 PUSH2 0xBB7 JUMP JUMPDEST JUMPDEST MUL OR SWAP1 SSTORE POP PUSH1 0x80 DUP3 ADD MLOAD DUP2 PUSH1 0x3 ADD PUSH1 0x1 PUSH2 0x100 EXP DUP2 SLOAD DUP2 PUSH1 0xFF MUL NOT AND SWAP1 DUP4 ISZERO ISZERO MUL OR SWAP1 SSTORE POP SWAP1 POP POP POP POP POP POP POP POP JUMP JUMPDEST PUSH0 PUSH1 0x20 MSTORE DUP1 PUSH0 MSTORE PUSH1 0x40 PUSH0 KECCAK256 PUSH0 SWAP2 POP SWAP1 POP DUP1 PUSH0 ADD DUP1 SLOAD PUSH2 0x251 SWAP1 PUSH2 0xE52 JUMP JUMPDEST DUP1 PUSH1 0x1F ADD PUSH1 0x20 DUP1 SWAP2 DIV MUL PUSH1 0x20 ADD PUSH1 0x40 MLOAD SWAP1 DUP2 ADD PUSH1 0x40 MSTORE DUP1 SWAP3 SWAP2 SWAP1 DUP2 DUP2 MSTORE PUSH1 0x20 ADD DUP3 DUP1 SLOAD PUSH2 0x27D SWAP1 PUSH2 0xE52 JUMP JUMPDEST DUP1 ISZERO PUSH2 0x2C8 JUMPI DUP1 PUSH1 0x1F LT PUSH2 0x29F JUMPI PUSH2 0x100 DUP1 DUP4 SLOAD DIV MUL DUP4 MSTORE SWAP2 PUSH1 0x20 ADD SWAP2 PUSH2 0x2C8 JUMP JUMPDEST DUP3 ADD SWAP2 SWAP1 PUSH0 MSTORE PUSH1 0x20 PUSH0 KECCAK256 SWAP1 JUMPDEST DUP2 SLOAD DUP2 MSTORE SWAP1 PUSH1 0x1 ADD SWAP1 PUSH1 0x20 ADD DUP1 DUP4 GT PUSH2 0x2AB JUMPI DUP3 SWAP1 SUB PUSH1 0x1F AND DUP3 ADD SWAP2 JUMPDEST POP POP POP POP POP SWAP1 DUP1 PUSH1 0x1 ADD SLOAD SWAP1 DUP1 PUSH1 0x2 ADD SLOAD SWAP1 DUP1 PUSH1 0x3 ADD PUSH0 SWAP1 SLOAD SWAP1 PUSH2 0x100 EXP SWAP1 DIV PUSH1 0xFF AND SWAP1 DUP1 PUSH1 0x3 ADD PUSH1 0x1 SWAP1 SLOAD SWAP1 PUSH2 0x100 EXP SWAP1 DIV PUSH1 0xFF AND SWAP1 POP DUP6 JUMP JUMPDEST PUSH0 PUSH1 0x4B PUSH0 DUP1 DUP5 PUSH20 0xFFFFFFFFFFFFFFFFFFFFFFFFFFFFFFFFFFFFFFFF AND PUSH20 0xFFFFFFFFFFFFFFFFFFFFFFFFFFFFFFFFFFFFFFFF AND DUP2 MSTORE PUSH1 0x20 ADD SWAP1 DUP2 MSTORE PUSH1 0x20 ADD PUSH0 KECCAK256 PUSH1 0x1 ADD SLOAD GT PUSH2 0x386 JUMPI PUSH1 0x40 MLOAD PUSH32 0x8C379A000000000000000000000000000000000000000000000000000000000 DUP2 MSTORE PUSH1 0x4 ADD PUSH2 0x37D SWAP1 PUSH2 0x115E JUMP JUMPDEST PUSH1 0x40 MLOAD DUP1 SWAP2 SUB SWAP1 REVERT JUMPDEST PUSH1 0x1 PUSH0 DUP1 DUP5 PUSH20 0xFFFFFFFFFFFFFFFFFFFFFFFFFFFFFFFFFFFFFFFF AND PUSH20 0xFFFFFFFFFFFFFFFFFFFFFFFFFFFFFFFFFFFFFFFF AND DUP2 MSTORE PUSH1 0x20 ADD SWAP1 DUP2 MSTORE PUSH1 0x20 ADD PUSH0 KECCAK256 PUSH1 0x3 ADD PUSH1 0x1 PUSH2 0x100 EXP DUP2 SLOAD DUP2 PUSH1 0xFF MUL NOT AND SWAP1 DUP4 ISZERO ISZERO MUL OR SWAP1 SSTORE POP PUSH1 0x1 SWAP1 POP SWAP2 SWAP1 POP JUMP JUMPDEST PUSH1 0x60 PUSH0 DUP1 DUP4 PUSH20 0xFFFFFFFFFFFFFFFFFFFFFFFFFFFFFFFFFFFFFFFF AND PUSH20 0xFFFFFFFFFFFFFFFFFFFFFFFFFFFFFFFFFFFFFFFF AND DUP2 MSTORE PUSH1 0x20 ADD SWAP1 DUP2 MSTORE PUSH1 0x20 ADD PUSH0 KECCAK256 PUSH1 0x3 ADD PUSH1 0x1 SWAP1 SLOAD SWAP1 PUSH2 0x100 EXP SWAP1 DIV PUSH1 0xFF AND PUSH2 0x475 JUMPI PUSH1 0x40 MLOAD PUSH32 0x8C379A000000000000000000000000000000000000000000000000000000000 DUP2 MSTORE PUSH1 0x4 ADD PUSH2 0x46C SWAP1 PUSH2 0x11EC JUMP JUMPDEST PUSH1 0x40 MLOAD DUP1 SWAP2 SUB SWAP1 REVERT JUMPDEST PUSH0 PUSH1 0x3 DUP2 GT ISZERO PUSH2 0x488 JUMPI PUSH2 0x487 PUSH2 0xBB7 JUMP JUMPDEST JUMPDEST PUSH0 DUP1 DUP5 PUSH20 0xFFFFFFFFFFFFFFFFFFFFFFFFFFFFFFFFFFFFFFFF AND PUSH20 0xFFFFFFFFFFFFFFFFFFFFFFFFFFFFFFFFFFFFFFFF AND DUP2 MSTORE PUSH1 0x20 ADD SWAP1 DUP2 MSTORE PUSH1 0x20 ADD PUSH0 KECCAK256 PUSH1 0x3 ADD PUSH0 SWAP1 SLOAD SWAP1 PUSH2 0x100 EXP SWAP1 DIV PUSH1 0xFF AND PUSH1 0x3 DUP2 GT ISZERO PUSH2 0x4E6 JUMPI PUSH2 0x4E5 PUSH2 0xBB7 JUMP JUMPDEST JUMPDEST EQ DUP1 PUSH2 0x560 JUMPI POP PUSH1 0x3 DUP1 DUP2 GT ISZERO PUSH2 0x500 JUMPI PUSH2 0x4FF PUSH2 0xBB7 JUMP JUMPDEST JUMPDEST PUSH0 DUP1 DUP5 PUSH20 0xFFFFFFFFFFFFFFFFFFFFFFFFFFFFFFFFFFFFFFFF AND PUSH20 0xFFFFFFFFFFFFFFFFFFFFFFFFFFFFFFFFFFFFFFFF AND DUP2 MSTORE PUSH1 0x20 ADD SWAP1 DUP2 MSTORE PUSH1 0x20 ADD PUSH0 KECCAK256 PUSH1 0x3 ADD PUSH0 SWAP1 SLOAD SWAP1 PUSH2 0x100 EXP SWAP1 DIV PUSH1 0xFF AND PUSH1 0x3 DUP2 GT ISZERO PUSH2 0x55E JUMPI PUSH2 0x55D PUSH2 0xBB7 JUMP JUMPDEST JUMPDEST EQ JUMPDEST PUSH2 0x56D JUMPI PUSH2 0x56C PUSH2 0x120A JUMP JUMPDEST JUMPDEST PUSH1 0x40 MLOAD DUP1 PUSH1 0x40 ADD PUSH1 0x40 MSTORE DUP1 PUSH1 0x1A DUP2 MSTORE PUSH1 0x20 ADD PUSH32 0x5365617420616C6C6F636174696F6E207375636365737366756C000000000000 DUP2 MSTORE POP SWAP1 POP SWAP2 SWAP1 POP JUMP JUMPDEST PUSH2 0x5B2 PUSH2 0x807 JUMP JUMPDEST PUSH1 0x60 PUSH0 DUP1 DUP6 PUSH20 0xFFFFFFFFFFFFFFFFFFFFFFFFFFFFFFFFFFFFFFFF AND PUSH20 0xFFFFFFFFFFFFFFFFFFFFFFFFFFFFFFFFFFFFFFFF AND DUP2 MSTORE PUSH1 0x20 ADD SWAP1 DUP2 MSTORE PUSH1 0x20 ADD PUSH0 KECCAK256 PUSH1 0x3 ADD PUSH1 0x1 SWAP1 SLOAD SWAP1 PUSH2 0x100 EXP SWAP1 DIV PUSH1 0xFF AND PUSH2 0x640 JUMPI PUSH1 0x40 MLOAD PUSH32 0x8C379A000000000000000000000000000000000000000000000000000000000 DUP2 MSTORE PUSH1 0x4 ADD PUSH2 0x637 SWAP1 PUSH2 0x11EC JUMP JUMPDEST PUSH1 0x40 MLOAD DUP1 SWAP2 SUB SWAP1 REVERT JUMPDEST DUP3 PUSH0 DUP1 DUP7 PUSH20 0xFFFFFFFFFFFFFFFFFFFFFFFFFFFFFFFFFFFFFFFF AND PUSH20 0xFFFFFFFFFFFFFFFFFFFFFFFFFFFFFFFFFFFFFFFF AND DUP2 MSTORE PUSH1 0x20 ADD SWAP1 DUP2 MSTORE PUSH1 0x20 ADD PUSH0 KECCAK256 PUSH1 0x2 ADD DUP2 SWAP1 SSTORE POP PUSH0 DUP1 DUP6 PUSH20 0xFFFFFFFFFFFFFFFFFFFFFFFFFFFFFFFFFFFFFFFF AND PUSH20 0xFFFFFFFFFFFFFFFFFFFFFFFFFFFFFFFFFFFFFFFF AND DUP2 MSTORE PUSH1 0x20 ADD SWAP1 DUP2 MSTORE PUSH1 0x20 ADD PUSH0 KECCAK256 DUP1 PUSH1 0x40 MLOAD DUP1 PUSH1 0xA0 ADD PUSH1 0x40 MSTORE SWAP1 DUP2 PUSH0 DUP3 ADD DUP1 SLOAD PUSH2 0x6DB SWAP1 PUSH2 0xE52 JUMP JUMPDEST DUP1 PUSH1 0x1F ADD PUSH1 0x20 DUP1 SWAP2 DIV MUL PUSH1 0x20 ADD PUSH1 0x40 MLOAD SWAP1 DUP2 ADD PUSH1 0x40 MSTORE DUP1 SWAP3 SWAP2 SWAP1 DUP2 DUP2 MSTORE PUSH1 0x20 ADD DUP3 DUP1 SLOAD PUSH2 0x707 SWAP1 PUSH2 0xE52 JUMP JUMPDEST DUP1 ISZERO PUSH2 0x752 JUMPI DUP1 PUSH1 0x1F LT PUSH2 0x729 JUMPI PUSH2 0x100 DUP1 DUP4 SLOAD DIV MUL DUP4 MSTORE SWAP2 PUSH1 0x20 ADD SWAP2 PUSH2 0x752 JUMP JUMPDEST DUP3 ADD SWAP2 SWAP1 PUSH0 MSTORE PUSH1 0x20 PUSH0 KECCAK256 SWAP1 JUMPDEST DUP2 SLOAD DUP2 MSTORE SWAP1 PUSH1 0x1 ADD SWAP1 PUSH1 0x20 ADD DUP1 DUP4 GT PUSH2 0x735 JUMPI DUP3 SWAP1 SUB PUSH1 0x1F AND DUP3 ADD SWAP2 JUMPDEST POP POP POP POP POP DUP2 MSTORE PUSH1 0x20 ADD PUSH1 0x1 DUP3 ADD SLOAD DUP2 MSTORE PUSH1 0x20 ADD PUSH1 0x2 DUP3 ADD SLOAD DUP2 MSTORE PUSH1 0x20 ADD PUSH1 0x3 DUP3 ADD PUSH0 SWAP1 SLOAD SWAP1 PUSH2 0x100 EXP SWAP1 DIV PUSH1 0xFF AND PUSH1 0x3 DUP2 GT ISZERO PUSH2 0x793 JUMPI PUSH2 0x792 PUSH2 0xBB7 JUMP JUMPDEST JUMPDEST PUSH1 0x3 DUP2 GT ISZERO PUSH2 0x7A5 JUMPI PUSH2 0x7A4 PUSH2 0xBB7 JUMP JUMPDEST JUMPDEST DUP2 MSTORE PUSH1 0x20 ADD PUSH1 0x3 DUP3 ADD PUSH1 0x1 SWAP1 SLOAD SWAP1 PUSH2 0x100 EXP SWAP1 DIV PUSH1 0xFF AND ISZERO ISZERO ISZERO ISZERO DUP2 MSTORE POP POP SWAP1 POP PUSH1 0x40 MLOAD DUP1 PUSH1 0x40 ADD PUSH1 0x40 MSTORE DUP1 PUSH1 0xE DUP2 MSTORE PUSH1 0x20 ADD PUSH32 0x5374617475732075706461746564000000000000000000000000000000000000 DUP2 MSTORE POP SWAP2 POP SWAP2 POP SWAP3 POP SWAP3 SWAP1 POP JUMP JUMPDEST PUSH1 0x40 MLOAD DUP1 PUSH1 0xA0 ADD PUSH1 0x40 MSTORE DUP1 PUSH1 0x60 DUP2 MSTORE PUSH1 0x20 ADD PUSH0 DUP2 MSTORE PUSH1 0x20 ADD PUSH0 DUP2 MSTORE PUSH1 0x20 ADD PUSH0 PUSH1 0x3 DUP2 GT ISZERO PUSH2 0x838 JUMPI PUSH2 0x837 PUSH2 0xBB7 JUMP JUMPDEST JUMPDEST DUP2 MSTORE PUSH1 0x20 ADD PUSH0 ISZERO ISZERO DUP2 MSTORE POP SWAP1 JUMP JUMPDEST PUSH0 PUSH1 0x40 MLOAD SWAP1 POP SWAP1 JUMP JUMPDEST PUSH0 DUP1 REVERT JUMPDEST PUSH0 DUP1 REVERT JUMPDEST PUSH0 PUSH20 0xFFFFFFFFFFFFFFFFFFFFFFFFFFFFFFFFFFFFFFFF DUP3 AND SWAP1 POP SWAP2 SWAP1 POP JUMP JUMPDEST PUSH0 PUSH2 0x880 DUP3 PUSH2 0x857 JUMP JUMPDEST SWAP1 POP SWAP2 SWAP1 POP JUMP JUMPDEST PUSH2 0x890 DUP2 PUSH2 0x876 JUMP JUMPDEST DUP2 EQ PUSH2 0x89A JUMPI PUSH0 DUP1 REVERT JUMPDEST POP JUMP JUMPDEST PUSH0 DUP2 CALLDATALOAD SWAP1 POP PUSH2 0x8AB DUP2 PUSH2 0x887 JUMP JUMPDEST SWAP3 SWAP2 POP POP JUMP JUMPDEST PUSH0 DUP1 REVERT JUMPDEST PUSH0 DUP1 REVERT JUMPDEST PUSH0 PUSH1 0x1F NOT PUSH1 0x1F DUP4 ADD AND SWAP1 POP SWAP2 SWAP1 POP JUMP JUMPDEST PUSH32 0x4E487B7100000000000000000000000000000000000000000000000000000000 PUSH0 MSTORE PUSH1 0x41 PUSH1 0x4 MSTORE PUSH1 0x24 PUSH0 REVERT JUMPDEST PUSH2 0x8FF DUP3 PUSH2 0x8B9 JUMP JUMPDEST DUP2 ADD DUP2 DUP2 LT PUSH8 0xFFFFFFFFFFFFFFFF DUP3 GT OR ISZERO PUSH2 0x91E JUMPI PUSH2 0x91D PUSH2 0x8C9 JUMP JUMPDEST JUMPDEST DUP1 PUSH1 0x40 MSTORE POP POP POP JUMP JUMPDEST PUSH0 PUSH2 0x930 PUSH2 0x846 JUMP JUMPDEST SWAP1 POP PUSH2 0x93C DUP3 DUP3 PUSH2 0x8F6 JUMP JUMPDEST SWAP2 SWAP1 POP JUMP JUMPDEST PUSH0 PUSH8 0xFFFFFFFFFFFFFFFF DUP3 GT ISZERO PUSH2 0x95B JUMPI PUSH2 0x95A PUSH2 0x8C9 JUMP JUMPDEST JUMPDEST PUSH2 0x964 DUP3 PUSH2 0x8B9 JUMP JUMPDEST SWAP1 POP PUSH1 0x20 DUP2 ADD SWAP1 POP SWAP2 SWAP1 POP JUMP JUMPDEST DUP3 DUP2 DUP4 CALLDATACOPY PUSH0 DUP4 DUP4 ADD MSTORE POP POP POP JUMP JUMPDEST PUSH0 PUSH2 0x991 PUSH2 0x98C DUP5 PUSH2 0x941 JUMP JUMPDEST PUSH2 0x927 JUMP JUMPDEST SWAP1 POP DUP3 DUP2 MSTORE PUSH1 0x20 DUP2 ADD DUP5 DUP5 DUP5 ADD GT ISZERO PUSH2 0x9AD JUMPI PUSH2 0x9AC PUSH2 0x8B5 JUMP JUMPDEST JUMPDEST PUSH2 0x9B8 DUP5 DUP3 DUP6 PUSH2 0x971 JUMP JUMPDEST POP SWAP4 SWAP3 POP POP POP JUMP JUMPDEST PUSH0 DUP3 PUSH1 0x1F DUP4 ADD SLT PUSH2 0x9D4 JUMPI PUSH2 0x9D3 PUSH2 0x8B1 JUMP JUMPDEST JUMPDEST DUP2 CALLDATALOAD PUSH2 0x9E4 DUP5 DUP3 PUSH1 0x20 DUP7 ADD PUSH2 0x97F JUMP JUMPDEST SWAP2 POP POP SWAP3 SWAP2 POP POP JUMP JUMPDEST PUSH0 DUP2 SWAP1 POP SWAP2 SWAP1 POP JUMP JUMPDEST PUSH2 0x9FF DUP2 PUSH2 0x9ED JUMP JUMPDEST DUP2 EQ PUSH2 0xA09 JUMPI PUSH0 DUP1 REVERT JUMPDEST POP JUMP JUMPDEST PUSH0 DUP2 CALLDATALOAD SWAP1 POP PUSH2 0xA1A DUP2 PUSH2 0x9F6 JUMP JUMPDEST SWAP3 SWAP2 POP POP JUMP JUMPDEST PUSH1 0x4 DUP2 LT PUSH2 0xA2C JUMPI PUSH0 DUP1 REVERT JUMPDEST POP JUMP JUMPDEST PUSH0 DUP2 CALLDATALOAD SWAP1 POP PUSH2 0xA3D DUP2 PUSH2 0xA20 JUMP JUMPDEST SWAP3 SWAP2 POP POP JUMP JUMPDEST PUSH0 DUP2 ISZERO ISZERO SWAP1 POP SWAP2 SWAP1 POP JUMP JUMPDEST PUSH2 0xA57 DUP2 PUSH2 0xA43 JUMP JUMPDEST DUP2 EQ PUSH2 0xA61 JUMPI PUSH0 DUP1 REVERT JUMPDEST POP JUMP JUMPDEST PUSH0 DUP2 CALLDATALOAD SWAP1 POP PUSH2 0xA72 DUP2 PUSH2 0xA4E JUMP JUMPDEST SWAP3 SWAP2 POP POP JUMP JUMPDEST PUSH0 DUP1 PUSH0 DUP1 PUSH0 DUP1 PUSH1 0xC0 DUP8 DUP10 SUB SLT ISZERO PUSH2 0xA92 JUMPI PUSH2 0xA91 PUSH2 0x84F JUMP JUMPDEST JUMPDEST PUSH0 PUSH2 0xA9F DUP10 DUP3 DUP11 ADD PUSH2 0x89D JUMP JUMPDEST SWAP7 POP POP PUSH1 0x20 DUP8 ADD CALLDATALOAD PUSH8 0xFFFFFFFFFFFFFFFF DUP2 GT ISZERO PUSH2 0xAC0 JUMPI PUSH2 0xABF PUSH2 0x853 JUMP JUMPDEST JUMPDEST PUSH2 0xACC DUP10 DUP3 DUP11 ADD PUSH2 0x9C0 JUMP JUMPDEST SWAP6 POP POP PUSH1 0x40 PUSH2 0xADD DUP10 DUP3 DUP11 ADD PUSH2 0xA0C JUMP JUMPDEST SWAP5 POP POP PUSH1 0x60 PUSH2 0xAEE DUP10 DUP3 DUP11 ADD PUSH2 0xA0C JUMP JUMPDEST SWAP4 POP POP PUSH1 0x80 PUSH2 0xAFF DUP10 DUP3 DUP11 ADD PUSH2 0xA2F JUMP JUMPDEST SWAP3 POP POP PUSH1 0xA0 PUSH2 0xB10 DUP10 DUP3 DUP11 ADD PUSH2 0xA64 JUMP JUMPDEST SWAP2 POP POP SWAP3 SWAP6 POP SWAP3 SWAP6 POP SWAP3 SWAP6 JUMP JUMPDEST PUSH0 PUSH1 0x20 DUP3 DUP5 SUB SLT ISZERO PUSH2 0xB32 JUMPI PUSH2 0xB31 PUSH2 0x84F JUMP JUMPDEST JUMPDEST PUSH0 PUSH2 0xB3F DUP5 DUP3 DUP6 ADD PUSH2 0x89D JUMP JUMPDEST SWAP2 POP POP SWAP3 SWAP2 POP POP JUMP JUMPDEST PUSH0 DUP2 MLOAD SWAP1 POP SWAP2 SWAP1 POP JUMP JUMPDEST PUSH0 DUP3 DUP3 MSTORE PUSH1 0x20 DUP3 ADD SWAP1 POP SWAP3 SWAP2 POP POP JUMP JUMPDEST DUP3 DUP2 DUP4 MCOPY PUSH0 DUP4 DUP4 ADD MSTORE POP POP POP JUMP JUMPDEST PUSH0 PUSH2 0xB7A DUP3 PUSH2 0xB48 JUMP JUMPDEST PUSH2 0xB84 DUP2 DUP6 PUSH2 0xB52 JUMP JUMPDEST SWAP4 POP PUSH2 0xB94 DUP2 DUP6 PUSH1 0x20 DUP7 ADD PUSH2 0xB62 JUMP JUMPDEST PUSH2 0xB9D DUP2 PUSH2 0x8B9 JUMP JUMPDEST DUP5 ADD SWAP2 POP POP SWAP3 SWAP2 POP POP JUMP JUMPDEST PUSH2 0xBB1 DUP2 PUSH2 0x9ED JUMP JUMPDEST DUP3 MSTORE POP POP JUMP JUMPDEST PUSH32 0x4E487B7100000000000000000000000000000000000000000000000000000000 PUSH0 MSTORE PUSH1 0x21 PUSH1 0x4 MSTORE PUSH1 0x24 PUSH0 REVERT JUMPDEST PUSH1 0x4 DUP2 LT PUSH2 0xBF5 JUMPI PUSH2 0xBF4 PUSH2 0xBB7 JUMP JUMPDEST JUMPDEST POP JUMP JUMPDEST PUSH0 DUP2 SWAP1 POP PUSH2 0xC05 DUP3 PUSH2 0xBE4 JUMP JUMPDEST SWAP2 SWAP1 POP JUMP JUMPDEST PUSH0 PUSH2 0xC14 DUP3 PUSH2 0xBF8 JUMP JUMPDEST SWAP1 POP SWAP2 SWAP1 POP JUMP JUMPDEST PUSH2 0xC24 DUP2 PUSH2 0xC0A JUMP JUMPDEST DUP3 MSTORE POP POP JUMP JUMPDEST PUSH2 0xC33 DUP2 PUSH2 0xA43 JUMP JUMPDEST DUP3 MSTORE POP POP JUMP JUMPDEST PUSH0 PUSH1 0xA0 DUP3 ADD SWAP1 POP DUP2 DUP2 SUB PUSH0 DUP4 ADD MSTORE PUSH2 0xC51 DUP2 DUP9 PUSH2 0xB70 JUMP JUMPDEST SWAP1 POP PUSH2 0xC60 PUSH1 0x20 DUP4 ADD DUP8 PUSH2 0xBA8 JUMP JUMPDEST PUSH2 0xC6D PUSH1 0x40 DUP4 ADD DUP7 PUSH2 0xBA8 JUMP JUMPDEST PUSH2 0xC7A PUSH1 0x60 DUP4 ADD DUP6 PUSH2 0xC1B JUMP JUMPDEST PUSH2 0xC87 PUSH1 0x80 DUP4 ADD DUP5 PUSH2 0xC2A JUMP JUMPDEST SWAP7 SWAP6 POP POP POP POP POP POP JUMP JUMPDEST PUSH0 PUSH1 0x20 DUP3 ADD SWAP1 POP PUSH2 0xCA4 PUSH0 DUP4 ADD DUP5 PUSH2 0xC2A JUMP JUMPDEST SWAP3 SWAP2 POP POP JUMP JUMPDEST PUSH0 PUSH1 0x20 DUP3 ADD SWAP1 POP DUP2 DUP2 SUB PUSH0 DUP4 ADD MSTORE PUSH2 0xCC2 DUP2 DUP5 PUSH2 0xB70 JUMP JUMPDEST SWAP1 POP SWAP3 SWAP2 POP POP JUMP JUMPDEST PUSH0 DUP1 PUSH1 0x40 DUP4 DUP6 SUB SLT ISZERO PUSH2 0xCE0 JUMPI PUSH2 0xCDF PUSH2 0x84F JUMP JUMPDEST JUMPDEST PUSH0 PUSH2 0xCED DUP6 DUP3 DUP7 ADD PUSH2 0x89D JUMP JUMPDEST SWAP3 POP POP PUSH1 0x20 PUSH2 0xCFE DUP6 DUP3 DUP7 ADD PUSH2 0xA0C JUMP JUMPDEST SWAP2 POP POP SWAP3 POP SWAP3 SWAP1 POP JUMP JUMPDEST PUSH0 DUP3 DUP3 MSTORE PUSH1 0x20 DUP3 ADD SWAP1 POP SWAP3 SWAP2 POP POP JUMP JUMPDEST PUSH0 PUSH2 0xD22 DUP3 PUSH2 0xB48 JUMP JUMPDEST PUSH2 0xD2C DUP2 DUP6 PUSH2 0xD08 JUMP JUMPDEST SWAP4 POP PUSH2 0xD3C DUP2 DUP6 PUSH1 0x20 DUP7 ADD PUSH2 0xB62 JUMP JUMPDEST PUSH2 0xD45 DUP2 PUSH2 0x8B9 JUMP JUMPDEST DUP5 ADD SWAP2 POP POP SWAP3 SWAP2 POP POP JUMP JUMPDEST PUSH2 0xD59 DUP2 PUSH2 0x9ED JUMP JUMPDEST DUP3 MSTORE POP POP JUMP JUMPDEST PUSH2 0xD68 DUP2 PUSH2 0xC0A JUMP JUMPDEST DUP3 MSTORE POP POP JUMP JUMPDEST PUSH2 0xD77 DUP2 PUSH2 0xA43 JUMP JUMPDEST DUP3 MSTORE POP POP JUMP JUMPDEST PUSH0 PUSH1 0xA0 DUP4 ADD PUSH0 DUP4 ADD MLOAD DUP5 DUP3 SUB PUSH0 DUP7 ADD MSTORE PUSH2 0xD97 DUP3 DUP3 PUSH2 0xD18 JUMP JUMPDEST SWAP2 POP POP PUSH1 0x20 DUP4 ADD MLOAD PUSH2 0xDAC PUSH1 0x20 DUP7 ADD DUP3 PUSH2 0xD50 JUMP JUMPDEST POP PUSH1 0x40 DUP4 ADD MLOAD PUSH2 0xDBF PUSH1 0x40 DUP7 ADD DUP3 PUSH2 0xD50 JUMP JUMPDEST POP PUSH1 0x60 DUP4 ADD MLOAD PUSH2 0xDD2 PUSH1 0x60 DUP7 ADD DUP3 PUSH2 0xD5F JUMP JUMPDEST POP PUSH1 0x80 DUP4 ADD MLOAD PUSH2 0xDE5 PUSH1 0x80 DUP7 ADD DUP3 PUSH2 0xD6E JUMP JUMPDEST POP DUP1 SWAP2 POP POP SWAP3 SWAP2 POP POP JUMP JUMPDEST PUSH0 PUSH1 0x40 DUP3 ADD SWAP1 POP DUP2 DUP2 SUB PUSH0 DUP4 ADD MSTORE PUSH2 0xE08 DUP2 DUP6 PUSH2 0xD7D JUMP JUMPDEST SWAP1 POP DUP2 DUP2 SUB PUSH1 0x20 DUP4 ADD MSTORE PUSH2 0xE1C DUP2 DUP5 PUSH2 0xB70 JUMP JUMPDEST SWAP1 POP SWAP4 SWAP3 POP POP POP JUMP JUMPDEST PUSH32 0x4E487B7100000000000000000000000000000000000000000000000000000000 PUSH0 MSTORE PUSH1 0x22 PUSH1 0x4 MSTORE PUSH1 0x24 PUSH0 REVERT JUMPDEST PUSH0 PUSH1 0x2 DUP3 DIV SWAP1 POP PUSH1 0x1 DUP3 AND DUP1 PUSH2 0xE69 JUMPI PUSH1 0x7F DUP3 AND SWAP2 POP JUMPDEST PUSH1 0x20 DUP3 LT DUP2 SUB PUSH2 0xE7C JUMPI PUSH2 0xE7B PUSH2 0xE25 JUMP JUMPDEST JUMPDEST POP SWAP2 SWAP1 POP JUMP JUMPDEST PUSH0 DUP2 SWAP1 POP DUP2 PUSH0 MSTORE PUSH1 0x20 PUSH0 KECCAK256 SWAP1 POP SWAP2 SWAP1 POP JUMP JUMPDEST PUSH0 PUSH1 0x20 PUSH1 0x1F DUP4 ADD DIV SWAP1 POP SWAP2 SWAP1 POP JUMP JUMPDEST PUSH0 DUP3 DUP3 SHL SWAP1 POP SWAP3 SWAP2 POP POP JUMP JUMPDEST PUSH0 PUSH1 0x8 DUP4 MUL PUSH2 0xEDE PUSH32 0xFFFFFFFFFFFFFFFFFFFFFFFFFFFFFFFFFFFFFFFFFFFFFFFFFFFFFFFFFFFFFFFF DUP3 PUSH2 0xEA3 JUMP JUMPDEST PUSH2 0xEE8 DUP7 DUP4 PUSH2 0xEA3 JUMP JUMPDEST SWAP6 POP DUP1 NOT DUP5 AND SWAP4 POP DUP1 DUP7 AND DUP5 OR SWAP3 POP POP POP SWAP4 SWAP3 POP POP POP JUMP JUMPDEST PUSH0 DUP2 SWAP1 POP SWAP2 SWAP1 POP JUMP JUMPDEST PUSH0 PUSH2 0xF23 PUSH2 0xF1E PUSH2 0xF19 DUP5 PUSH2 0x9ED JUMP JUMPDEST PUSH2 0xF00 JUMP JUMPDEST PUSH2 0x9ED JUMP JUMPDEST SWAP1 POP SWAP2 SWAP1 POP JUMP JUMPDEST PUSH0 DUP2 SWAP1 POP SWAP2 SWAP1 POP JUMP JUMPDEST PUSH2 0xF3C DUP4 PUSH2 0xF09 JUMP JUMPDEST PUSH2 0xF50 PUSH2 0xF48 DUP3 PUSH2 0xF2A JUMP JUMPDEST DUP5 DUP5 SLOAD PUSH2 0xEAF JUMP JUMPDEST DUP3 SSTORE POP POP POP POP JUMP JUMPDEST PUSH0 SWAP1 JUMP JUMPDEST PUSH2 0xF64 PUSH2 0xF58 JUMP JUMPDEST PUSH2 0xF6F DUP2 DUP5 DUP5 PUSH2 0xF33 JUMP JUMPDEST POP POP POP JUMP JUMPDEST JUMPDEST DUP2 DUP2 LT ISZERO PUSH2 0xF92 JUMPI PUSH2 0xF87 PUSH0 DUP3 PUSH2 0xF5C JUMP JUMPDEST PUSH1 0x1 DUP2 ADD SWAP1 POP PUSH2 0xF75 JUMP JUMPDEST POP POP JUMP JUMPDEST PUSH1 0x1F DUP3 GT ISZERO PUSH2 0xFD7 JUMPI PUSH2 0xFA8 DUP2 PUSH2 0xE82 JUMP JUMPDEST PUSH2 0xFB1 DUP5 PUSH2 0xE94 JUMP JUMPDEST DUP2 ADD PUSH1 0x20 DUP6 LT ISZERO PUSH2 0xFC0 JUMPI DUP2 SWAP1 POP JUMPDEST PUSH2 0xFD4 PUSH2 0xFCC DUP6 PUSH2 0xE94 JUMP JUMPDEST DUP4 ADD DUP3 PUSH2 0xF74 JUMP JUMPDEST POP POP JUMPDEST POP POP POP JUMP JUMPDEST PUSH0 DUP3 DUP3 SHR SWAP1 POP SWAP3 SWAP2 POP POP JUMP JUMPDEST PUSH0 PUSH2 0xFF7 PUSH0 NOT DUP5 PUSH1 0x8 MUL PUSH2 0xFDC JUMP JUMPDEST NOT DUP1 DUP4 AND SWAP2 POP POP SWAP3 SWAP2 POP POP JUMP JUMPDEST PUSH0 PUSH2 0x100F DUP4 DUP4 PUSH2 0xFE8 JUMP JUMPDEST SWAP2 POP DUP3 PUSH1 0x2 MUL DUP3 OR SWAP1 POP SWAP3 SWAP2 POP POP JUMP JUMPDEST PUSH2 0x1028 DUP3 PUSH2 0xB48 JUMP JUMPDEST PUSH8 0xFFFFFFFFFFFFFFFF DUP2 GT ISZERO PUSH2 0x1041 JUMPI PUSH2 0x1040 PUSH2 0x8C9 JUMP JUMPDEST JUMPDEST PUSH2 0x104B DUP3 SLOAD PUSH2 0xE52 JUMP JUMPDEST PUSH2 0x1056 DUP3 DUP3 DUP6 PUSH2 0xF96 JUMP JUMPDEST PUSH0 PUSH1 0x20 SWAP1 POP PUSH1 0x1F DUP4 GT PUSH1 0x1 DUP2 EQ PUSH2 0x1087 JUMPI PUSH0 DUP5 ISZERO PUSH2 0x1075 JUMPI DUP3 DUP8 ADD MLOAD SWAP1 POP JUMPDEST PUSH2 0x107F DUP6 DUP3 PUSH2 0x1004 JUMP JUMPDEST DUP7 SSTORE POP PUSH2 0x10E6 JUMP JUMPDEST PUSH1 0x1F NOT DUP5 AND PUSH2 0x1095 DUP7 PUSH2 0xE82 JUMP JUMPDEST PUSH0 JUMPDEST DUP3 DUP2 LT ISZERO PUSH2 0x10BC JUMPI DUP5 DUP10 ADD MLOAD DUP3 SSTORE PUSH1 0x1 DUP3 ADD SWAP2 POP PUSH1 0x20 DUP6 ADD SWAP5 POP PUSH1 0x20 DUP2 ADD SWAP1 POP PUSH2 0x1097 JUMP JUMPDEST DUP7 DUP4 LT ISZERO PUSH2 0x10D9 JUMPI DUP5 DUP10 ADD MLOAD PUSH2 0x10D5 PUSH1 0x1F DUP10 AND DUP3 PUSH2 0xFE8 JUMP JUMPDEST DUP4 SSTORE POP JUMPDEST PUSH1 0x1 PUSH1 0x2 DUP9 MUL ADD DUP9 SSTORE POP POP POP JUMPDEST POP POP POP POP POP POP JUMP JUMPDEST PUSH32 0x556E646572207265717569726564206D61726B2C206170706C69636174696F6E PUSH0 DUP3 ADD MSTORE PUSH32 0x2069732072656A65637465640000000000000000000000000000000000000000 PUSH1 0x20 DUP3 ADD MSTORE POP JUMP JUMPDEST PUSH0 PUSH2 0x1148 PUSH1 0x2C DUP4 PUSH2 0xB52 JUMP JUMPDEST SWAP2 POP PUSH2 0x1153 DUP3 PUSH2 0x10EE JUMP JUMPDEST PUSH1 0x40 DUP3 ADD SWAP1 POP SWAP2 SWAP1 POP JUMP JUMPDEST PUSH0 PUSH1 0x20 DUP3 ADD SWAP1 POP DUP2 DUP2 SUB PUSH0 DUP4 ADD MSTORE PUSH2 0x1175 DUP2 PUSH2 0x113C JUMP JUMPDEST SWAP1 POP SWAP2 SWAP1 POP JUMP JUMPDEST PUSH32 0x4E6F206578697374696E6720736561742073746174757320746F207570646174 PUSH0 DUP3 ADD MSTORE PUSH32 0x652C20666972737420616C6C6F636174652061206E6577206F6E650000000000 PUSH1 0x20 DUP3 ADD MSTORE POP JUMP JUMPDEST PUSH0 PUSH2 0x11D6 PUSH1 0x3B DUP4 PUSH2 0xB52 JUMP JUMPDEST SWAP2 POP PUSH2 0x11E1 DUP3 PUSH2 0x117C JUMP JUMPDEST PUSH1 0x40 DUP3 ADD SWAP1 POP SWAP2 SWAP1 POP JUMP JUMPDEST PUSH0 PUSH1 0x20 DUP3 ADD SWAP1 POP DUP2 DUP2 SUB PUSH0 DUP4 ADD MSTORE PUSH2 0x1203 DUP2 PUSH2 0x11CA JUMP JUMPDEST SWAP1 POP SWAP2 SWAP1 POP JUMP JUMPDEST PUSH32 0x4E487B7100000000000000000000000000000000000000000000000000000000 PUSH0 MSTORE PUSH1 0x1 PUSH1 0x4 MSTORE PUSH1 0x24 PUSH0 REVERT INVALID LOG2 PUSH5 0x6970667358 0x22 SLT KECCAK256 0xC7 SWAP8 0xE3 SWAP12 JUMPDEST EXTCODESIZE PUSH8 0xCAF95F5792066ADC MSTORE EXP MULMOD 0xD0 SWAP2 PREVRANDAO 0xA9 0xC1 0xD0 0xA9 PUSH6 0x9C7E870B0EDD PUSH5 0x736F6C6343 STOP ADDMOD NOT STOP CALLER "
				},
				"gasEstimates": {
					"creation": {
						"codeDepositCost": "943400",
						"executionCost": "979",
						"totalCost": "944379"
					},
					"external": {
						"addStudent(address,string,uint256,uint256,uint8,bool)": "infinite",
						"allocateNewSeat(address)": "27297",
						"applyseat(address)": "infinite",
						"students(address)": "infinite",
						"updateseatstatus(address,uint256)": "infinite"
					}
				},
				"methodIdentifiers": {
					"addStudent(address,string,uint256,uint256,uint8,bool)": "1db791a3",
					"allocateNewSeat(address)": "ac512912",
					"applyseat(address)": "cd2632d3",
					"students(address)": "a6c807a9",
					"updateseatstatus(address,uint256)": "fc478a22"
				}
			},
			"storageLayout": {
				"storage": [
					{
						"astId": 23,
						"contract": "admission.sol:admission",
						"label": "students",
						"offset": 0,
						"slot": "0",
						"type": "t_mapping(t_address,t_struct(student)18_storage)"
					}
				],
				"types": {
					"t_address": {
						"encoding": "inplace",
						"label": "address",
						"numberOfBytes": "20"
					},
					"t_bool": {
						"encoding": "inplace",
						"label": "bool",
						"numberOfBytes": "1"
					},
					"t_enum(board)6": {
						"encoding": "inplace",
						"label": "enum admission.board",
						"numberOfBytes": "1"
					},
					"t_mapping(t_address,t_struct(student)18_storage)": {
						"encoding": "mapping",
						"key": "t_address",
						"label": "mapping(address => struct admission.student)",
						"numberOfBytes": "32",
						"value": "t_struct(student)18_storage"
					},
					"t_string_storage": {
						"encoding": "bytes",
						"label": "string",
						"numberOfBytes": "32"
					},
					"t_struct(student)18_storage": {
						"encoding": "inplace",
						"label": "struct admission.student",
						"members": [
							{
								"astId": 8,
								"contract": "admission.sol:admission",
								"label": "name",
								"offset": 0,
								"slot": "0",
								"type": "t_string_storage"
							},
							{
								"astId": 10,
								"contract": "admission.sol:admission",
								"label": "mark",
								"offset": 0,
								"slot": "1",
								"type": "t_uint256"
							},
							{
								"astId": 12,
								"contract": "admission.sol:admission",
								"label": "phoneNo",
								"offset": 0,
								"slot": "2",
								"type": "t_uint256"
							},
							{
								"astId": 15,
								"contract": "admission.sol:admission",
								"label": "examinationBoard",
								"offset": 0,
								"slot": "3",
								"type": "t_enum(board)6"
							},
							{
								"astId": 17,
								"contract": "admission.sol:admission",
								"label": "isHavingrequiredmark",
								"offset": 1,
								"slot": "3",
								"type": "t_bool"
							}
						],
						"numberOfBytes": "128"
					},
					"t_uint256": {
						"encoding": "inplace",
						"label": "uint256",
						"numberOfBytes": "32"
					}
				}
			},
			"userdoc": {
				"kind": "user",
				"methods": {},
				"version": 1
			}
		}
	}
}